{
  "_format": "hh-sol-artifact-1",
  "contractName": "BLOODBANK",
  "sourceName": "contracts/BloodBank.sol",
  "abi": [
    {
      "inputs": [],
      "stateMutability": "nonpayable",
      "type": "constructor"
    },
    {
      "anonymous": false,
      "inputs": [
        {
          "indexed": false,
          "internalType": "string",
          "name": "requestId",
          "type": "string"
        },
        {
          "indexed": false,
          "internalType": "string",
          "name": "comment",
          "type": "string"
        }
      ],
      "name": "AddComment",
      "type": "event"
    },
    {
      "anonymous": false,
      "inputs": [
        {
          "indexed": false,
          "internalType": "string",
          "name": "name",
          "type": "string"
        },
        {
          "indexed": false,
          "internalType": "string",
          "name": "bloodType",
          "type": "string"
        }
      ],
      "name": "CreateProfile",
      "type": "event"
    },
    {
      "anonymous": false,
      "inputs": [
        {
          "indexed": false,
          "internalType": "string",
          "name": "timestamp",
          "type": "string"
        },
        {
          "indexed": false,
          "internalType": "string",
          "name": "details",
          "type": "string"
        }
      ],
      "name": "CreateRequestEvent",
      "type": "event"
    },
    {
      "inputs": [
        {
          "internalType": "string",
          "name": "_requestID",
          "type": "string"
        },
        {
          "internalType": "string",
          "name": "_details",
          "type": "string"
        },
        {
          "internalType": "string",
          "name": "_image",
          "type": "string"
        }
      ],
      "name": "CreateRequest",
      "outputs": [],
      "stateMutability": "nonpayable",
      "type": "function"
    },
    {
      "inputs": [
        {
          "internalType": "string",
          "name": "_name",
          "type": "string"
        },
        {
          "internalType": "string",
          "name": "_bloodType",
          "type": "string"
        },
        {
          "internalType": "string",
          "name": "_dob",
          "type": "string"
        },
        {
          "internalType": "string",
          "name": "_gender",
          "type": "string"
        },
        {
          "internalType": "string",
          "name": "_MR",
          "type": "string"
        },
        {
          "internalType": "uint256",
          "name": "_EC",
          "type": "uint256"
        }
      ],
      "name": "EditMyProfile",
      "outputs": [],
      "stateMutability": "nonpayable",
      "type": "function"
    },
    {
      "inputs": [
        {
          "internalType": "string",
          "name": "_name",
          "type": "string"
        },
        {
          "internalType": "string",
          "name": "_bloodType",
          "type": "string"
        },
        {
          "internalType": "string",
          "name": "_dob",
          "type": "string"
        },
        {
          "internalType": "string",
          "name": "_gender",
          "type": "string"
        },
        {
          "internalType": "string",
          "name": "_MR",
          "type": "string"
        },
        {
          "internalType": "uint256",
          "name": "_EC",
          "type": "uint256"
        }
      ],
      "name": "LoginUser",
      "outputs": [],
      "stateMutability": "nonpayable",
      "type": "function"
    },
    {
      "inputs": [
        {
          "internalType": "address",
          "name": "",
          "type": "address"
        },
        {
          "internalType": "uint256",
          "name": "",
          "type": "uint256"
        }
      ],
      "name": "activities",
      "outputs": [
        {
          "internalType": "string",
          "name": "",
          "type": "string"
        }
      ],
      "stateMutability": "view",
      "type": "function"
    },
    {
      "inputs": [
        {
          "internalType": "address",
          "name": "",
          "type": "address"
        }
      ],
      "name": "activitiesCount",
      "outputs": [
        {
          "internalType": "uint256",
          "name": "",
          "type": "uint256"
        }
      ],
      "stateMutability": "view",
      "type": "function"
    },
    {
      "inputs": [
        {
          "internalType": "string",
          "name": "_requestId",
          "type": "string"
        },
        {
          "internalType": "string",
          "name": "_comment",
          "type": "string"
        }
      ],
      "name": "addComment",
      "outputs": [],
      "stateMutability": "nonpayable",
      "type": "function"
    },
    {
      "inputs": [
        {
          "internalType": "string",
          "name": "",
          "type": "string"
        }
      ],
      "name": "allRequests",
      "outputs": [
        {
          "internalType": "address",
          "name": "requestor",
          "type": "address"
        },
        {
          "internalType": "string",
          "name": "requestId",
          "type": "string"
        },
        {
          "internalType": "string",
          "name": "details",
          "type": "string"
        },
        {
          "internalType": "string",
          "name": "image",
          "type": "string"
        }
      ],
      "stateMutability": "view",
      "type": "function"
    },
    {
      "inputs": [
        {
          "internalType": "address",
          "name": "",
          "type": "address"
        }
      ],
      "name": "balances",
      "outputs": [
        {
          "internalType": "uint256",
          "name": "",
          "type": "uint256"
        }
      ],
      "stateMutability": "view",
      "type": "function"
    },
    {
      "inputs": [],
      "name": "buyBks",
      "outputs": [],
      "stateMutability": "payable",
      "type": "function"
    },
    {
      "inputs": [
        {
          "internalType": "string",
          "name": "_reqId",
          "type": "string"
        }
      ],
      "name": "deleteRequest",
      "outputs": [],
      "stateMutability": "nonpayable",
      "type": "function"
    },
    {
      "inputs": [],
      "name": "getAllMyRequests",
      "outputs": [
        {
          "components": [
            {
              "internalType": "address",
              "name": "requestor",
              "type": "address"
            },
            {
              "internalType": "string",
              "name": "requestId",
              "type": "string"
            },
            {
              "internalType": "string",
              "name": "details",
              "type": "string"
            },
            {
              "internalType": "string",
              "name": "image",
              "type": "string"
            },
            {
              "components": [
                {
                  "internalType": "address",
                  "name": "commentator",
                  "type": "address"
                },
                {
                  "internalType": "string",
                  "name": "text",
                  "type": "string"
                }
              ],
              "internalType": "struct BLOODBANK.Comment[]",
              "name": "comments",
              "type": "tuple[]"
            }
          ],
          "internalType": "struct BLOODBANK.Requests[]",
          "name": "",
          "type": "tuple[]"
        }
      ],
      "stateMutability": "view",
      "type": "function"
    },
    {
      "inputs": [],
      "name": "getAllNotification",
      "outputs": [
        {
          "internalType": "string[]",
          "name": "",
          "type": "string[]"
        }
      ],
      "stateMutability": "view",
      "type": "function"
    },
    {
      "inputs": [],
      "name": "getAllPendingRequests",
      "outputs": [
        {
          "components": [
            {
              "internalType": "string",
              "name": "text",
              "type": "string"
            },
            {
              "internalType": "string",
              "name": "requestId",
              "type": "string"
            },
            {
              "internalType": "address",
              "name": "commentatorId",
              "type": "address"
            }
          ],
          "internalType": "struct BLOODBANK.Donation[]",
          "name": "",
          "type": "tuple[]"
        }
      ],
      "stateMutability": "view",
      "type": "function"
    },
    {
      "inputs": [],
      "name": "getAllRequests",
      "outputs": [
        {
          "components": [
            {
              "internalType": "address",
              "name": "requestor",
              "type": "address"
            },
            {
              "internalType": "string",
              "name": "requestId",
              "type": "string"
            },
            {
              "internalType": "string",
              "name": "details",
              "type": "string"
            },
            {
              "internalType": "string",
              "name": "image",
              "type": "string"
            },
            {
              "components": [
                {
                  "internalType": "address",
                  "name": "commentator",
                  "type": "address"
                },
                {
                  "internalType": "string",
                  "name": "text",
                  "type": "string"
                }
              ],
              "internalType": "struct BLOODBANK.Comment[]",
              "name": "comments",
              "type": "tuple[]"
            }
          ],
          "internalType": "struct BLOODBANK.Requests[]",
          "name": "",
          "type": "tuple[]"
        }
      ],
      "stateMutability": "view",
      "type": "function"
    },
    {
      "inputs": [
        {
          "internalType": "string",
          "name": "_id",
          "type": "string"
        }
      ],
      "name": "getComments",
      "outputs": [
        {
          "components": [
            {
              "internalType": "address",
              "name": "commentator",
              "type": "address"
            },
            {
              "internalType": "string",
              "name": "text",
              "type": "string"
            }
          ],
          "internalType": "struct BLOODBANK.Comment[]",
          "name": "",
          "type": "tuple[]"
        }
      ],
      "stateMutability": "view",
      "type": "function"
    },
    {
      "inputs": [
        {
          "internalType": "address",
          "name": "_commentatorId",
          "type": "address"
        },
        {
          "internalType": "string",
          "name": "_requestId",
          "type": "string"
        }
      ],
      "name": "initiate",
      "outputs": [],
      "stateMutability": "nonpayable",
      "type": "function"
    },
    {
      "inputs": [
        {
          "internalType": "address",
          "name": "",
          "type": "address"
        }
      ],
      "name": "myNotificationCount",
      "outputs": [
        {
          "internalType": "uint256",
          "name": "",
          "type": "uint256"
        }
      ],
      "stateMutability": "view",
      "type": "function"
    },
    {
      "inputs": [
        {
          "internalType": "address",
          "name": "",
          "type": "address"
        },
        {
          "internalType": "uint256",
          "name": "",
          "type": "uint256"
        }
      ],
      "name": "myPending",
      "outputs": [
        {
          "internalType": "string",
          "name": "text",
          "type": "string"
        },
        {
          "internalType": "string",
          "name": "requestId",
          "type": "string"
        },
        {
          "internalType": "address",
          "name": "commentatorId",
          "type": "address"
        }
      ],
      "stateMutability": "view",
      "type": "function"
    },
    {
      "inputs": [
        {
          "internalType": "address",
          "name": "",
          "type": "address"
        }
      ],
      "name": "myPendingCount",
      "outputs": [
        {
          "internalType": "uint256",
          "name": "",
          "type": "uint256"
        }
      ],
      "stateMutability": "view",
      "type": "function"
    },
    {
      "inputs": [
        {
          "internalType": "address",
          "name": "",
          "type": "address"
        },
        {
          "internalType": "uint256",
          "name": "",
          "type": "uint256"
        }
      ],
      "name": "myRequests",
      "outputs": [
        {
          "internalType": "address",
          "name": "requestor",
          "type": "address"
        },
        {
          "internalType": "string",
          "name": "requestId",
          "type": "string"
        },
        {
          "internalType": "string",
          "name": "details",
          "type": "string"
        },
        {
          "internalType": "string",
          "name": "image",
          "type": "string"
        }
      ],
      "stateMutability": "view",
      "type": "function"
    },
    {
      "inputs": [
        {
          "internalType": "address",
          "name": "",
          "type": "address"
        }
      ],
      "name": "myRequestsCount",
      "outputs": [
        {
          "internalType": "uint256",
          "name": "",
          "type": "uint256"
        }
      ],
      "stateMutability": "view",
      "type": "function"
    },
    {
      "inputs": [],
      "name": "name",
      "outputs": [
        {
          "internalType": "string",
          "name": "",
          "type": "string"
        }
      ],
      "stateMutability": "view",
      "type": "function"
    },
    {
      "inputs": [
        {
          "internalType": "address",
          "name": "",
          "type": "address"
        },
        {
          "internalType": "uint256",
          "name": "",
          "type": "uint256"
        }
      ],
      "name": "notifications",
      "outputs": [
        {
          "internalType": "string",
          "name": "",
          "type": "string"
        }
      ],
      "stateMutability": "view",
      "type": "function"
    },
    {
      "inputs": [],
      "name": "owner",
      "outputs": [
        {
          "internalType": "address",
          "name": "",
          "type": "address"
        }
      ],
      "stateMutability": "view",
      "type": "function"
    },
    {
      "inputs": [
        {
          "internalType": "address",
          "name": "",
          "type": "address"
        }
      ],
      "name": "profile",
      "outputs": [
        {
          "internalType": "address",
          "name": "id",
          "type": "address"
        },
        {
          "internalType": "string",
          "name": "name",
          "type": "string"
        },
        {
          "internalType": "string",
          "name": "bloodType",
          "type": "string"
        },
        {
          "internalType": "string",
          "name": "dateOfBirth",
          "type": "string"
        },
        {
          "internalType": "string",
          "name": "gender",
          "type": "string"
        },
        {
          "internalType": "string",
          "name": "medicalReport",
          "type": "string"
        },
        {
          "internalType": "uint256",
          "name": "emergencyContact",
          "type": "uint256"
        }
      ],
      "stateMutability": "view",
      "type": "function"
    },
    {
      "inputs": [
        {
          "internalType": "address",
          "name": "_donor",
          "type": "address"
        },
        {
          "internalType": "string",
          "name": "_reqId",
          "type": "string"
        }
      ],
      "name": "releaseBks",
      "outputs": [],
      "stateMutability": "nonpayable",
      "type": "function"
    },
    {
      "inputs": [
        {
          "internalType": "string",
          "name": "_requestId",
          "type": "string"
        }
      ],
      "name": "removeComment",
      "outputs": [],
      "stateMutability": "nonpayable",
      "type": "function"
    },
    {
      "inputs": [
        {
          "internalType": "uint256",
          "name": "",
          "type": "uint256"
        }
      ],
      "name": "requestIds",
      "outputs": [
        {
          "internalType": "string",
          "name": "",
          "type": "string"
        }
      ],
      "stateMutability": "view",
      "type": "function"
    },
    {
      "inputs": [],
      "name": "tokenName",
      "outputs": [
        {
          "internalType": "string",
          "name": "",
          "type": "string"
        }
      ],
      "stateMutability": "view",
      "type": "function"
    },
    {
      "inputs": [
        {
          "internalType": "address",
          "name": "_id",
          "type": "address"
        },
        {
          "internalType": "uint256",
          "name": "_amount",
          "type": "uint256"
        }
      ],
      "name": "transferBKS",
      "outputs": [],
      "stateMutability": "nonpayable",
      "type": "function"
    },
    {
      "inputs": [],
      "name": "withdraw",
      "outputs": [],
      "stateMutability": "payable",
      "type": "function"
    }
  ],
  "bytecode": "0x60c06040526003608090815262424b5360e81b60a052600290610022908261012f565b50620f424060035534801561003657600080fd5b506040805180820190915260078152661108109b1bdbd960ca1b6020820152600090610062908261012f565b50600180546001600160a01b03191633908117909155600354600091825260096020526040909120556101ed565b634e487b7160e01b600052604160045260246000fd5b600181811c908216806100ba57607f821691505b6020821081036100da57634e487b7160e01b600052602260045260246000fd5b50919050565b601f82111561012a57806000526020600020601f840160051c810160208510156101075750805b601f840160051c820191505b818110156101275760008155600101610113565b50505b505050565b81516001600160401b0381111561014857610148610090565b61015c8161015684546100a6565b846100e0565b6020601f82116001811461019057600083156101785750848201515b600019600385901b1c1916600184901b178455610127565b600084815260208120601f198516915b828110156101c057878501518255602094850194600190920191016101a0565b50848210156101de5786840151600019600387901b60f8161c191681555b50505050600190811b01905550565b615079806101fc6000396000f3fe6080604052600436106101d85760003560e01c80637ff2a69811610102578063a8fa57f511610095578063cf0e4b1711610064578063cf0e4b17146105ac578063d2d36e84146105ce578063dbdd0203146105ee578063fb1a002a1461061b57600080fd5b8063a8fa57f514610544578063ae5ff90514610564578063b3074d0214610584578063c779f4951461058c57600080fd5b806398897920116100d157806398897920146104b15780639dd9d0fd146104d1578063a63a2ec114610504578063a8edc3af1461052457600080fd5b80637ff2a698146103fd5780638796ba8c1461042a5780638da5cb5b1461044a5780638e0c8ab51461048257600080fd5b8063513c08251161017a5780636bd05f35116101495780636bd05f35146103795780636c02a9311461039b57806370c63fcc146103b05780637d4ca269146103dd57600080fd5b8063513c0825146102dc57806356eac92d1461030c57806365d0bddd1461032c578063699709461461034c57600080fd5b8063105a02e8116101b6578063105a02e81461024a57806321b197571461026c57806327e235e3146102a75780633ccfd60b146102d457600080fd5b8063066db65f146101dd57806306fdde03146101ff578063091f84221461022a575b600080fd5b3480156101e957600080fd5b506101fd6101f836600461429f565b610630565b005b34801561020b57600080fd5b50610214610951565b6040516102219190614380565b60405180910390f35b34801561023657600080fd5b506101fd6102453660046143b6565b6109df565b34801561025657600080fd5b5061025f6113f7565b6040516102219190614403565b34801561027857600080fd5b50610299610287366004614540565b60076020526000908152604090205481565b604051908152602001610221565b3480156102b357600080fd5b506102996102c2366004614540565b60096020526000908152604090205481565b6101fd6117f9565b3480156102e857600080fd5b506102fc6102f736600461455b565b611932565b6040516102219493929190614597565b34801561031857600080fd5b506101fd6103273660046145ec565b611b08565b34801561033857600080fd5b506102146103473660046146dd565b611f1c565b34801561035857600080fd5b50610299610367366004614540565b600d6020526000908152604090205481565b34801561038557600080fd5b5061038e611f40565b6040516102219190614707565b3480156103a757600080fd5b5061021461216f565b3480156103bc57600080fd5b506103d06103cb36600461455b565b61217c565b604051610221919061479b565b3480156103e957600080fd5b506101fd6103f83660046145ec565b6122a3565b34801561040957600080fd5b50610299610418366004614540565b600f6020526000908152604090205481565b34801561043657600080fd5b50610214610445366004614814565b6123bd565b34801561045657600080fd5b5060015461046a906001600160a01b031681565b6040516001600160a01b039091168152602001610221565b34801561048e57600080fd5b506104a261049d3660046146dd565b6123e8565b6040516102219392919061482d565b3480156104bd57600080fd5b506102146104cc3660046146dd565b61252e565b3480156104dd57600080fd5b506104f16104ec366004614540565b612552565b604051610221979695949392919061486b565b34801561051057600080fd5b506101fd61051f3660046146dd565b61283f565b34801561053057600080fd5b506101fd61053f36600461455b565b612a81565b34801561055057600080fd5b506101fd61055f3660046143b6565b612b32565b34801561057057600080fd5b506101fd61057f3660046148f2565b613057565b6101fd613158565b34801561059857600080fd5b506101fd6105a736600461455b565b613476565b3480156105b857600080fd5b506105c16136aa565b6040516102219190614943565b3480156105da57600080fd5b506102fc6105e93660046146dd565b6137ed565b3480156105fa57600080fd5b50610299610609366004614540565b600b6020526000908152604090205481565b34801561062757600080fd5b5061025f613824565b336000908152600960205260409020546064111561068c5760405162461bcd60e51b81526020600482015260146024820152733737ba1032b737bab3b4102125a9903a37b5b2b760611b60448201526064015b60405180910390fd5b600060058460405161069e919061499c565b90815260405190819003602001902080546001600160a01b031916331781559050600181016106cd8582614a3a565b50600281016106dc8482614a3a565b50600381016106eb8382614a3a565b50806005856040516106fd919061499c565b908152604051908190036020019020815481546001600160a01b0319166001600160a01b0390911617815560018082019061073a90840182614afb565b5060028181019061074d90840182614afb565b5060038181019061076090840182614afb565b506004828101805461077592840191906140a5565b5050600680546001810182556000919091527ff652222313e28459528d920b65115c16c04f3efc82aaedc97be59f3f377c0d3f0190506107b58582614a3a565b503360009081526007602052604081208054916107d183614be5565b9091555050336000908152600860209081526040808320600783528184205484529091529020815481546001600160a01b0319166001600160a01b0391909116178155819060018082019061082890840182614afb565b5060028181019061083b90840182614afb565b5060038181019061084e90840182614afb565b506004828101805461086392840191906140a5565b5050336000908152600960205260408120805460649350909190610888908490614bfe565b9091555050336000908152600b602052604081208054916108a883614be5565b90915550506040517f43726561746564206120726571756573742053756365737366756c6c790000006020820152603d0160408051601f19818403018152918152336000908152600a6020908152828220600b8252838320548352905220906109119082614a3a565b507f7e54fbed74ec23d72999b7455780e98e634868f26c4de891d18c09bdb5f8c4578484604051610943929190614c11565b60405180910390a150505050565b6000805461095e906149b8565b80601f016020809104026020016040519081016040528092919081815260200182805461098a906149b8565b80156109d75780601f106109ac576101008083540402835291602001916109d7565b820191906000526020600020905b8154815290600101906020018083116109ba57829003601f168201915b505050505081565b60006005826040516109f1919061499c565b90815260408051918290036020908101832060a0840190925281546001600160a01b0316835260018201805491840191610a2a906149b8565b80601f0160208091040260200160405190810160405280929190818152602001828054610a56906149b8565b8015610aa35780601f10610a7857610100808354040283529160200191610aa3565b820191906000526020600020905b815481529060010190602001808311610a8657829003601f168201915b50505050508152602001600282018054610abc906149b8565b80601f0160208091040260200160405190810160405280929190818152602001828054610ae8906149b8565b8015610b355780601f10610b0a57610100808354040283529160200191610b35565b820191906000526020600020905b815481529060010190602001808311610b1857829003601f168201915b50505050508152602001600382018054610b4e906149b8565b80601f0160208091040260200160405190810160405280929190818152602001828054610b7a906149b8565b8015610bc75780601f10610b9c57610100808354040283529160200191610bc7565b820191906000526020600020905b815481529060010190602001808311610baa57829003601f168201915b5050505050815260200160048201805480602002602001604051908101604052809291908181526020016000905b82821015610cce576000848152602090819020604080518082019091526002850290910180546001600160a01b031682526001810180549293919291840191610c3d906149b8565b80601f0160208091040260200160405190810160405280929190818152602001828054610c69906149b8565b8015610cb65780601f10610c8b57610100808354040283529160200191610cb6565b820191906000526020600020905b815481529060010190602001808311610c9957829003601f168201915b50505050508152505081526020019060010190610bf5565b50505050815250509050806020015151600003610d215760405162461bcd60e51b815260206004820152601160248201527072657120646f65736e742065786973747360781b6044820152606401610683565b80516001600160a01b03163314610d7a5760405162461bcd60e51b815260206004820152601a60248201527f6f6e6c7920726571756573746f722063616e2072656c656173650000000000006044820152606401610683565b6001546001600160a01b03166000908152600960205260408120805460039290610da5908490614c3f565b90915550506001600160a01b0383166000908152600960205260408120805460619290610dd3908490614c3f565b90915550600190505b336000908152600f60205260409020548111610f5b578251602080850191909120336000908152600e8352604080822085835290935282902091519091610e2891600190910190614cc4565b604051809103902003610f1757336000908152600e60209081526040808320600f8352818420548452909152808220838352912080610e678382614afb565b50600181810190610e7a90840182614afb565b50600291820154910180546001600160a01b0319166001600160a01b03909216919091179055336000908152600e60209081526040808320600f8352818420548452909152812090610ecc828261412a565b610eda60018301600061412a565b5060020180546001600160a01b0319169055336000908152600f60205260408120805460019290610f0c908490614bfe565b90915550610f5b9050565b610f496040518060400160405280601181526020017014995c5d595cdd081b9bdd08199bdd5b99607a1b815250613bc3565b80610f5381614be5565b915050610ddc565b5060015b6001600160a01b0384166000908152600f602052604090205481116111005782516020808501919091206001600160a01b0386166000908152600e8352604080822085835290935282902091519091610fbd91600190910190614cc4565b6040518091039020036110bc576001600160a01b0384166000908152600e60209081526040808320600f83528184205484529091528082208383529120806110058382614afb565b5060018181019061101890840182614afb565b50600291820154910180546001600160a01b0319166001600160a01b0392831617905584166000908152600e60209081526040808320600f8352818420548452909152812090611068828261412a565b61107660018301600061412a565b5060020180546001600160a01b03191690556001600160a01b0384166000908152600f602052604081208054600192906110b1908490614bfe565b909155506111009050565b6110ee6040518060400160405280601181526020017014995c5d595cdd081b9bdd08199bdd5b99607a1b815250613bc3565b806110f881614be5565b915050610f5f565b50336000908152600b6020526040812080549161111c83614be5565b90915550506001600160a01b038316600090815260046020908152604091829020915161114d926001019101614cd0565b60408051601f19818403018152918152336000908152600a6020908152828220600b8252838320548352905220906111859082614a3a565b506001600160a01b0383166000908152600b602052604081208054916111aa83614be5565b90915550503360009081526004602090815260409182902091516111d2926001019101614d02565b60408051601f198184030181529181526001600160a01b0385166000908152600a6020908152828220600b8252838320548352905220906112139082614a3a565b506001546001600160a01b03166000908152600b6020526040812080549161123a83614be5565b9091555050604080517f4761696e65642033424b532066726f6d207472616e73616374696f6e7320666f602082015261039160f51b918101919091526bffffffffffffffffffffffff19606085901b16604282015260560160408051601f198184030181529181526001546001600160a01b03166000908152600a6020908152828220600b8252838320548352905220906112d59082614a3a565b50336000908152600d602052604081208054916112f183614be5565b90915550506001600160a01b0383166000908152600460209081526040918290209151611322926001019101614d34565b60408051601f19818403018152918152336000908152600c6020908152828220600d82528383205483529052209061135a9082614a3a565b506001600160a01b0383166000908152600d6020526040812080549161137f83614be5565b90915550503360009081526004602090815260409182902091516113a7926001019101614d56565b60408051601f198184030181529181526001600160a01b0385166000908152600c6020908152828220600d8252838320548352905220906113e89082614a3a565b506113f282613c06565b505050565b336000908152600760205260409020546060906114565760405162461bcd60e51b815260206004820152601d60248201527f596f752068617665206e6f2052657175657374732074696c6c206e6f770000006044820152606401610683565b3360009081526007602052604081205490816001600160401b0381111561147f5761147f6141fc565b6040519080825280602002602001820160405280156114b857816020015b6114a5614164565b81526020019060019003908161149d5790505b50905060005b828110156117f257336000908152600860205260408120906114e1836001614c3f565b81526020808201929092526040908101600020815160a0810190925280546001600160a01b031682526001810180549293919291840191611521906149b8565b80601f016020809104026020016040519081016040528092919081815260200182805461154d906149b8565b801561159a5780601f1061156f5761010080835404028352916020019161159a565b820191906000526020600020905b81548152906001019060200180831161157d57829003601f168201915b505050505081526020016002820180546115b3906149b8565b80601f01602080910402602001604051908101604052809291908181526020018280546115df906149b8565b801561162c5780601f106116015761010080835404028352916020019161162c565b820191906000526020600020905b81548152906001019060200180831161160f57829003601f168201915b50505050508152602001600382018054611645906149b8565b80601f0160208091040260200160405190810160405280929190818152602001828054611671906149b8565b80156116be5780601f10611693576101008083540402835291602001916116be565b820191906000526020600020905b8154815290600101906020018083116116a157829003601f168201915b5050505050815260200160048201805480602002602001604051908101604052809291908181526020016000905b828210156117c5576000848152602090819020604080518082019091526002850290910180546001600160a01b031682526001810180549293919291840191611734906149b8565b80601f0160208091040260200160405190810160405280929190818152602001828054611760906149b8565b80156117ad5780601f10611782576101008083540402835291602001916117ad565b820191906000526020600020905b81548152906001019060200180831161179057829003601f168201915b505050505081525050815260200190600101906116ec565b50505050815250508282815181106117df576117df614d72565b60209081029190910101526001016114be565b5092915050565b3360009081526009602052604090205461185f5760405162461bcd60e51b815260206004820152602160248201527f596f7520646f6e74206861766520616e7920424b5320746f20776974686472616044820152607760f81b6064820152608401610683565b3360009081526009602052604081205461187f906512309ce54000614d88565b604051909150339082156108fc029083906000818181858888f193505050501580156118af573d6000803e3d6000fd5b50336000908152600960209081526040808320839055600b90915281208054916118d883614be5565b91905055506118e681613f10565b6040516020016118f69190614d9f565b60408051601f19818403018152918152336000908152600a6020908152828220600b82528383205483529052209061192e9082614a3a565b5050565b8051602081830181018051600582529282019190930120915280546001820180546001600160a01b039092169291611969906149b8565b80601f0160208091040260200160405190810160405280929190818152602001828054611995906149b8565b80156119e25780601f106119b7576101008083540402835291602001916119e2565b820191906000526020600020905b8154815290600101906020018083116119c557829003601f168201915b5050505050908060020180546119f7906149b8565b80601f0160208091040260200160405190810160405280929190818152602001828054611a23906149b8565b8015611a705780601f10611a4557610100808354040283529160200191611a70565b820191906000526020600020905b815481529060010190602001808311611a5357829003601f168201915b505050505090806003018054611a85906149b8565b80601f0160208091040260200160405190810160405280929190818152602001828054611ab1906149b8565b8015611afe5780601f10611ad357610100808354040283529160200191611afe565b820191906000526020600020905b815481529060010190602001808311611ae157829003601f168201915b5050505050905084565b336000818152600460205260409020805490916001600160a01b0390911614611b735760405162461bcd60e51b815260206004820152601d60248201527f596f7520617265206e6f74207468652070726f66696c65206f776e65720000006044820152606401610683565b865115611bf45760018101611b888882614a3a565b50336000908152600b60205260408120805491611ba483614be5565b919050555086604051602001611bba9190614dec565b60408051601f19818403018152918152336000908152600a6020908152828220600b825283832054835290522090611bf29082614a3a565b505b855115611c755760028101611c098782614a3a565b50336000908152600b60205260408120805491611c2583614be5565b919050555085604051602001611c3b9190614e3a565b60408051601f19818403018152918152336000908152600a6020908152828220600b825283832054835290522090611c739082614a3a565b505b845115611cf65760038101611c8a8682614a3a565b50336000908152600b60205260408120805491611ca683614be5565b919050555084604051602001611cbc9190614e8d565b60408051601f19818403018152918152336000908152600a6020908152828220600b825283832054835290522090611cf49082614a3a565b505b835115611d775760048101611d0b8582614a3a565b50336000908152600b60205260408120805491611d2783614be5565b919050555083604051602001611d3d9190614eda565b60408051601f19818403018152918152336000908152600a6020908152828220600b825283832054835290522090611d759082614a3a565b505b825115611e6e5760058101611d8c8482614a3a565b50336000908152600b60205260408120805491611da883614be5565b919050555060405180606001604052806022815260200161502260229139336000908152600a60209081526040808320600b8352818420548452909152902090611df29082614a3a565b50336000908152600d60205260408120805491611e0e83614be5565b90915550506040805180820182526016815275155c19185d1959081359591a58d85b0814995c1bdc9d60521b602080830191909152336000908152600c8252838120600d83528482205482529091529190912090611e6c9082614a3a565b505b8115611f135760068101829055336000908152600b60205260408120805491611e9683614be5565b909155505060405172021b430b733b2b21021b7b73a30b1ba103a379606d1b6020820152603381018390526b2053756365737366756c6c7960a01b6053820152605f0160408051601f19818403018152918152336000908152600a6020908152828220600b825283832054835290522090611f119082614a3a565b505b50505050505050565b600a6020908152600092835260408084209091529082529020805461095e906149b8565b336000908152600f6020526040812054606091906001600160401b03811115611f6b57611f6b6141fc565b604051908082528060200260200182016040528015611fb857816020015b60408051606080820183528082526020820152600091810191909152815260200190600190039081611f895790505b50905060005b336000908152600f602052604090205481101561216957336000908152600e6020526040812090611ff0836001614c3f565b8152602001908152602001600020604051806060016040529081600082018054612019906149b8565b80601f0160208091040260200160405190810160405280929190818152602001828054612045906149b8565b80156120925780601f1061206757610100808354040283529160200191612092565b820191906000526020600020905b81548152906001019060200180831161207557829003601f168201915b505050505081526020016001820180546120ab906149b8565b80601f01602080910402602001604051908101604052809291908181526020018280546120d7906149b8565b80156121245780601f106120f957610100808354040283529160200191612124565b820191906000526020600020905b81548152906001019060200180831161210757829003601f168201915b5050509183525050600291909101546001600160a01b0316602090910152825183908390811061215657612156614d72565b6020908102919091010152600101611fbe565b50919050565b6002805461095e906149b8565b606060058260405161218e919061499c565b9081526020016040518091039020600401805480602002602001604051908101604052809291908181526020016000905b82821015612298576000848152602090819020604080518082019091526002850290910180546001600160a01b031682526001810180549293919291840191612207906149b8565b80601f0160208091040260200160405190810160405280929190818152602001828054612233906149b8565b80156122805780601f1061225557610100808354040283529160200191612280565b820191906000526020600020905b81548152906001019060200180831161226357829003601f168201915b505050505081525050815260200190600101906121bf565b505050509050919050565b6040805160e0810182523380825260208083018a81528385018a9052606084018990526080840188905260a0840187905260c0840186905260009283526004909152929020815181546001600160a01b0319166001600160a01b0390911617815591519091829160018201906123199082614a3a565b506040820151600282019061232e9082614a3a565b50606082015160038201906123439082614a3a565b50608082015160048201906123589082614a3a565b5060a0820151600582019061236d9082614a3a565b5060c082015181600601559050507f46b183c16a39f1e155acd80fd090bc7dd91637962b2310fdb79bdcb2e2000c9987876040516123ac929190614c11565b60405180910390a150505050505050565b600681815481106123cd57600080fd5b90600052602060002001600091509050805461095e906149b8565b600e60209081526000928352604080842090915290825290208054819061240e906149b8565b80601f016020809104026020016040519081016040528092919081815260200182805461243a906149b8565b80156124875780601f1061245c57610100808354040283529160200191612487565b820191906000526020600020905b81548152906001019060200180831161246a57829003601f168201915b50505050509080600101805461249c906149b8565b80601f01602080910402602001604051908101604052809291908181526020018280546124c8906149b8565b80156125155780601f106124ea57610100808354040283529160200191612515565b820191906000526020600020905b8154815290600101906020018083116124f857829003601f168201915b505050600290930154919250506001600160a01b031683565b600c6020908152600092835260408084209091529082529020805461095e906149b8565b600460205260009081526040902080546001820180546001600160a01b03909216929161257e906149b8565b80601f01602080910402602001604051908101604052809291908181526020018280546125aa906149b8565b80156125f75780601f106125cc576101008083540402835291602001916125f7565b820191906000526020600020905b8154815290600101906020018083116125da57829003601f168201915b50505050509080600201805461260c906149b8565b80601f0160208091040260200160405190810160405280929190818152602001828054612638906149b8565b80156126855780601f1061265a57610100808354040283529160200191612685565b820191906000526020600020905b81548152906001019060200180831161266857829003601f168201915b50505050509080600301805461269a906149b8565b80601f01602080910402602001604051908101604052809291908181526020018280546126c6906149b8565b80156127135780601f106126e857610100808354040283529160200191612713565b820191906000526020600020905b8154815290600101906020018083116126f657829003601f168201915b505050505090806004018054612728906149b8565b80601f0160208091040260200160405190810160405280929190818152602001828054612754906149b8565b80156127a15780601f10612776576101008083540402835291602001916127a1565b820191906000526020600020905b81548152906001019060200180831161278457829003601f168201915b5050505050908060050180546127b6906149b8565b80601f01602080910402602001604051908101604052809291908181526020018280546127e2906149b8565b801561282f5780601f106128045761010080835404028352916020019161282f565b820191906000526020600020905b81548152906001019060200180831161281257829003601f168201915b5050505050908060060154905087565b3360009081526009602052604090205461289b5760405162461bcd60e51b815260206004820152601860248201527f596f7520646f6e74206861766520616e7920746f6b656e7300000000000000006044820152606401610683565b3360009081526009602052604090205481111561290a5760405162461bcd60e51b815260206004820152602760248201527f596f7520646f6e74206861766520656e6f75676820746f6b656e7320746f2073604482015266656e6420424b5360c81b6064820152608401610683565b6001600160a01b03821660009081526009602052604081208054839290612932908490614c3f565b90915550503360009081526009602052604081208054839290612956908490614bfe565b9091555050336000908152600b6020526040812080549161297683614be5565b919050555061298481613f10565b6001600160a01b03831660009081526004602090815260409182902091516129b193926001019101614f2a565b60408051601f19818403018152918152336000908152600a6020908152828220600b8252838320548352905220906129e99082614a3a565b506001600160a01b0382166000908152600b60205260408120805491612a0e83614be5565b9190505550612a1c81613f10565b336000908152600460209081526040918290209151612a4093926001019101614f73565b60408051601f198184030181529181526001600160a01b0384166000908152600a6020908152828220600b8252838320548352905220906113f29082614a3a565b336001600160a01b0316600582604051612a9b919061499c565b908152604051908190036020019020546001600160a01b031614612b015760405162461bcd60e51b815260206004820181905260248201527f4f6e6c7920526571756573746f722063616e2064656c657465526571756573746044820152606401610683565b612b0a81613c06565b336000908152600960205260408120805460619290612b2a908490614c3f565b909155505050565b6001600160a01b03821660009081526004602052604081206001018054612b58906149b8565b80601f0160208091040260200160405190810160405280929190818152602001828054612b84906149b8565b8015612bd15780601f10612ba657610100808354040283529160200191612bd1565b820191906000526020600020905b815481529060010190602001808311612bb457829003601f168201915b505050505090506000600583604051612bea919061499c565b90815260408051918290036020908101832060a0840190925281546001600160a01b0316835260018201805491840191612c23906149b8565b80601f0160208091040260200160405190810160405280929190818152602001828054612c4f906149b8565b8015612c9c5780601f10612c7157610100808354040283529160200191612c9c565b820191906000526020600020905b815481529060010190602001808311612c7f57829003601f168201915b50505050508152602001600282018054612cb5906149b8565b80601f0160208091040260200160405190810160405280929190818152602001828054612ce1906149b8565b8015612d2e5780601f10612d0357610100808354040283529160200191612d2e565b820191906000526020600020905b815481529060010190602001808311612d1157829003601f168201915b50505050508152602001600382018054612d47906149b8565b80601f0160208091040260200160405190810160405280929190818152602001828054612d73906149b8565b8015612dc05780601f10612d9557610100808354040283529160200191612dc0565b820191906000526020600020905b815481529060010190602001808311612da357829003601f168201915b5050505050815260200160048201805480602002602001604051908101604052809291908181526020016000905b82821015612ec7576000848152602090819020604080518082019091526002850290910180546001600160a01b031682526001810180549293919291840191612e36906149b8565b80601f0160208091040260200160405190810160405280929190818152602001828054612e62906149b8565b8015612eaf5780601f10612e8457610100808354040283529160200191612eaf565b820191906000526020600020905b815481529060010190602001808311612e9257829003601f168201915b50505050508152505081526020019060010190612dee565b505050915250506040805160608082018352808252602082015260009181019190915290915082604051602001612efe9190614fbb565b60408051601f19818403018152918152908252602083810151838201526001600160a01b03871683830152336000908152600f909152908120805491612f4383614be5565b9091555050336000908152600e60209081526040808320600f8352818420548452909152902081518291908190612f7a9082614a3a565b5060208201516001820190612f8f9082614a3a565b5060409182015160029190910180546001600160a01b0319166001600160a01b0392831617905586166000908152600f602052908120805491612fd183614be5565b90915550506001600160a01b0385166000908152600e60209081526040808320600f83528184205484529091529020815182919081906130119082614a3a565b50602082015160018201906130269082614a3a565b5060409190910151600290910180546001600160a01b0319166001600160a01b039092169190911790555050505050565b600582604051613067919061499c565b90815260200160405180910390206001018054613083906149b8565b90506000036130d45760405162461bcd60e51b815260206004820152601a60248201527f546865205265717565737420446f65736e2774204578697374730000000000006044820152606401610683565b60006005836040516130e6919061499c565b908152604080516020928190038301812081830190925233815282810185815260048301805460018082018355600092835295909120835160029092020180546001600160a01b0319166001600160a01b0390921691909117815590519294509092839290820190611f139082614a3a565b6001546001600160a01b031633036131aa5760405162461bcd60e51b81526020600482015260156024820152744f776e65722043616e742062757920746f6b656e7360581b6044820152606401610683565b3466038d7ea4c6800014806131c557503466071afd498d0000145b61322a5760405162461bcd60e51b815260206004820152603060248201527f596f752073686f756c642070617920302e30303120657468206f7220302e303060448201526f322065746820746f2062757920424b5360801b6064820152608401610683565b3466071afd498d00000361335057336000908152600960205260408120805460649290613258908490614c3f565b9091555050336000908152600b6020526040812080549161327883614be5565b9091555050604080518082018252601981527f426f7567687420313030424b532073756365737366756c6c7900000000000000602080830191909152336000908152600a8252838120600b835284822054825290915291909120906132dd9082614a3a565b50336000908152600d602052604081208054916132f983614be5565b9091555050604080518082018252600d8082526c426f7567687420313030426b7360981b602080840191909152336000908152600c8252848120928252848120548152919052919091209061334e9082614a3a565b505b3466038d7ea4c68000036134745733600090815260096020526040812080546032929061337e908490614c3f565b9091555050336000908152600b6020526040812080549161339e83614be5565b9091555050604080518082018252601881527f426f75676874203530424b532073756365737366756c6c790000000000000000602080830191909152336000908152600a8252838120600b835284822054825290915291909120906134039082614a3a565b50336000908152600d6020526040812080549161341f83614be5565b9091555050604080518082018252600c8082526b426f75676874203530424b5360a01b602080840191909152336000908152918152838220600d8252848320548352905291909120906134729082614a3a565b505b565b600581604051613486919061499c565b908152602001604051809103902060010180546134a2906149b8565b90506000036134eb5760405162461bcd60e51b815260206004820152601560248201527414995c5d595cdd08191bd95cdb89dd08195e1a5cdd605a1b6044820152606401610683565b60006005826040516134fd919061499c565b90815260405190819003602001902090506000196000805b600484015481101561357357336001600160a01b031684600401828154811061354057613540614d72565b60009182526020909120600290910201546001600160a01b03160361356b5760019150809250613573565b600101613515565b506001811515146135c65760405162461bcd60e51b815260206004820152601a60248201527f596f757220636f6d6d656e7420646f65736e27742065786973740000000000006044820152606401610683565b60048301548210156136a4576004830180546135e490600190614bfe565b815481106135f4576135f4614d72565b906000526020600020906002020183600401838154811061361757613617614d72565b60009182526020909120825460029092020180546001600160a01b0319166001600160a01b0390921691909117815560018082019061365890840182614afb565b5050506004830180548061366e5761366e61500b565b60008281526020812060026000199093019283020180546001600160a01b03191681559061369f600183018261412a565b505090555b50505050565b336000908152600b6020526040812054606091906001600160401b038111156136d5576136d56141fc565b60405190808252806020026020018201604052801561370857816020015b60608152602001906001900390816136f35790505b50905060005b336000908152600b602052604090205481101561216957336000908152600a602090815260408083208484529091529020805461374a906149b8565b80601f0160208091040260200160405190810160405280929190818152602001828054613776906149b8565b80156137c35780601f10613798576101008083540402835291602001916137c3565b820191906000526020600020905b8154815290600101906020018083116137a657829003601f168201915b50505050508282815181106137da576137da614d72565b602090810291909101015260010161370e565b6008602090815260009283526040808420909152908252902080546001820180546001600160a01b039092169291611969906149b8565b6006546060906000906001600160401b03811115613844576138446141fc565b60405190808252806020026020018201604052801561387d57816020015b61386a614164565b8152602001906001900390816138625790505b50905060005b600654811015612169576005600682815481106138a2576138a2614d72565b906000526020600020016040516138b99190614cc4565b90815260408051918290036020908101832060a0840190925281546001600160a01b03168352600182018054918401916138f2906149b8565b80601f016020809104026020016040519081016040528092919081815260200182805461391e906149b8565b801561396b5780601f106139405761010080835404028352916020019161396b565b820191906000526020600020905b81548152906001019060200180831161394e57829003601f168201915b50505050508152602001600282018054613984906149b8565b80601f01602080910402602001604051908101604052809291908181526020018280546139b0906149b8565b80156139fd5780601f106139d2576101008083540402835291602001916139fd565b820191906000526020600020905b8154815290600101906020018083116139e057829003601f168201915b50505050508152602001600382018054613a16906149b8565b80601f0160208091040260200160405190810160405280929190818152602001828054613a42906149b8565b8015613a8f5780601f10613a6457610100808354040283529160200191613a8f565b820191906000526020600020905b815481529060010190602001808311613a7257829003601f168201915b5050505050815260200160048201805480602002602001604051908101604052809291908181526020016000905b82821015613b96576000848152602090819020604080518082019091526002850290910180546001600160a01b031682526001810180549293919291840191613b05906149b8565b80601f0160208091040260200160405190810160405280929190818152602001828054613b31906149b8565b8015613b7e5780601f10613b5357610100808354040283529160200191613b7e565b820191906000526020600020905b815481529060010190602001808311613b6157829003601f168201915b50505050508152505081526020019060010190613abd565b5050505081525050828281518110613bb057613bb0614d72565b6020908102919091010152600101613883565b61347281604051602401613bd79190614380565b60408051601f198184030181529190526020810180516001600160e01b031663104c13eb60e21b179052613fa2565b60005b600654811015613ce25760068181548110613c2657613c26614d72565b90600052602060002001604051613c3d9190614cc4565b6040518091039020828051906020012003613cda5760068054613c6290600190614bfe565b81548110613c7257613c72614d72565b9060005260206000200160068281548110613c8f57613c8f614d72565b906000526020600020019081613ca59190614afb565b506006805480613cb757613cb761500b565b600190038181906000526020600020016000613cd3919061412a565b9055613ce2565b600101613c09565b5060015b336000908152600760205260409020548111613ea957815160208084019190912033600090815260088352604080822085835290935282902091519091613d3291600190910190614cc4565b604051809103902003613e6657336000908152600860209081526040808320600783528184205484529091528082208383529120815481546001600160a01b0319166001600160a01b03909116178155600180820190613d9490840182614afb565b50600281810190613da790840182614afb565b50600381810190613dba90840182614afb565b5060048281018054613dcf92840191906140a5565b505033600090815260086020908152604080832060078352818420548452909152812080546001600160a01b03191681559150613e0f600183018261412a565b613e1d60028301600061412a565b613e2b60038301600061412a565b613e3960048301600061419c565b5050336000908152600760205260408120805460019290613e5b908490614bfe565b90915550613ea99050565b613e976040518060400160405280601081526020016f14995c481a59081b9bdd08199bdd5b9960821b815250613bc3565b80613ea181614be5565b915050613ce6565b50600581604051613eba919061499c565b90815260405190819003602001902080546001600160a01b03191681556000613ee6600183018261412a565b613ef460028301600061412a565b613f0260038301600061412a565b6113f260048301600061419c565b60606000613f1d83613fab565b60010190506000816001600160401b03811115613f3c57613f3c6141fc565b6040519080825280601f01601f191660200182016040528015613f66576020820181803683370190505b5090508181016020015b600019016f181899199a1a9b1b9c1cb0b131b232b360811b600a86061a8153600a8504945084613f7057509392505050565b61347281614084565b60008072184f03e93ff9f4daa797ed6e38ed64bf6a1f0160401b8310613fea5772184f03e93ff9f4daa797ed6e38ed64bf6a1f0160401b830492506040015b6d04ee2d6d415b85acef81000000008310614016576d04ee2d6d415b85acef8100000000830492506020015b662386f26fc10000831061403457662386f26fc10000830492506010015b6305f5e100831061404c576305f5e100830492506008015b612710831061406057612710830492506004015b60648310614072576064830492506002015b600a831061407e576001015b92915050565b60006a636f6e736f6c652e6c6f679050600080835160208501845afa505050565b82805482825590600052602060002090600202810192821561411a5760005260206000209160020282015b8281111561411a57825482546001600160a01b0319166001600160a01b03909116178255828260018082019061410890840182614afb565b505050916002019190600201906140d0565b506141269291506141b9565b5090565b508054614136906149b8565b6000825580601f10614146575050565b601f01602090049060005260206000209081019061347291906141e7565b6040518060a0016040528060006001600160a01b03168152602001606081526020016060815260200160608152602001606081525090565b508054600082556002029060005260206000209081019061347291905b808211156141265780546001600160a01b031916815560006141de600183018261412a565b506002016141b9565b5b8082111561412657600081556001016141e8565b634e487b7160e01b600052604160045260246000fd5b600082601f83011261422357600080fd5b81356001600160401b0381111561423c5761423c6141fc565b604051601f8201601f19908116603f011681016001600160401b038111828210171561426a5761426a6141fc565b60405281815283820160200185101561428257600080fd5b816020850160208301376000918101602001919091529392505050565b6000806000606084860312156142b457600080fd5b83356001600160401b038111156142ca57600080fd5b6142d686828701614212565b93505060208401356001600160401b038111156142f257600080fd5b6142fe86828701614212565b92505060408401356001600160401b0381111561431a57600080fd5b61432686828701614212565b9150509250925092565b60005b8381101561434b578181015183820152602001614333565b50506000910152565b6000815180845261436c816020860160208601614330565b601f01601f19169290920160200192915050565b6020815260006143936020830184614354565b9392505050565b80356001600160a01b03811681146143b157600080fd5b919050565b600080604083850312156143c957600080fd5b6143d28361439a565b915060208301356001600160401b038111156143ed57600080fd5b6143f985828601614212565b9150509250929050565b6000602082016020835280845180835260408501915060408160051b86010192506020860160005b8281101561453457868503603f19018452815180516001600160a01b0316865260208082015160a09188018290529061446690880182614354565b90506040820151878203604089015261447f8282614354565b915050606082015187820360608901526144998282614354565b91505060808201519150868103608088015280825180835260208301915060208160051b84010160208501945060005b8281101561451a57848203601f19018452855180516001600160a01b0316835260209081015160409184018290529061450490840182614354565b60209788019795909501949250506001016144c9565b50985050506020958601959390930192505060010161442b565b50929695505050505050565b60006020828403121561455257600080fd5b6143938261439a565b60006020828403121561456d57600080fd5b81356001600160401b0381111561458357600080fd5b61458f84828501614212565b949350505050565b6001600160a01b03851681526080602082018190526000906145bb90830186614354565b82810360408401526145cd8186614354565b905082810360608401526145e18185614354565b979650505050505050565b60008060008060008060c0878903121561460557600080fd5b86356001600160401b0381111561461b57600080fd5b61462789828a01614212565b96505060208701356001600160401b0381111561464357600080fd5b61464f89828a01614212565b95505060408701356001600160401b0381111561466b57600080fd5b61467789828a01614212565b94505060608701356001600160401b0381111561469357600080fd5b61469f89828a01614212565b93505060808701356001600160401b038111156146bb57600080fd5b6146c789828a01614212565b9699959850939692959460a09093013593505050565b600080604083850312156146f057600080fd5b6146f98361439a565b946020939093013593505050565b6000602082016020835280845180835260408501915060408160051b86010192506020860160005b8281101561453457603f1987860301845281518051606087526147556060880182614354565b90506020820151878203602089015261476e8282614354565b6040938401516001600160a01b03169890930197909752509450602093840193919091019060010161472f565b6000602082016020835280845180835260408501915060408160051b86010192506020860160005b8281101561453457868503603f19018452815180516001600160a01b031686526020908101516040918701829052906147fe90870182614354565b95505060209384019391909101906001016147c3565b60006020828403121561482657600080fd5b5035919050565b6060815260006148406060830186614354565b82810360208401526148528186614354565b91505060018060a01b0383166040830152949350505050565b6001600160a01b038816815260e06020820181905260009061488f90830189614354565b82810360408401526148a18189614354565b905082810360608401526148b58188614354565b905082810360808401526148c98187614354565b905082810360a08401526148dd8186614354565b9150508260c083015298975050505050505050565b6000806040838503121561490557600080fd5b82356001600160401b0381111561491b57600080fd5b61492785828601614212565b92505060208301356001600160401b038111156143ed57600080fd5b6000602082016020835280845180835260408501915060408160051b86010192506020860160005b8281101561453457603f19878603018452614987858351614354565b9450602093840193919091019060010161496b565b600082516149ae818460208701614330565b9190910192915050565b600181811c908216806149cc57607f821691505b60208210810361216957634e487b7160e01b600052602260045260246000fd5b601f8211156113f257806000526020600020601f840160051c81016020851015614a135750805b601f840160051c820191505b81811015614a335760008155600101614a1f565b5050505050565b81516001600160401b03811115614a5357614a536141fc565b614a6781614a6184546149b8565b846149ec565b6020601f821160018114614a9e5760008315614a835750848201515b600184901b600019600386901b1c198216175b855550614a33565b600084815260208120601f198516915b82811015614ace5787850151825560209485019460019092019101614aae565b5084821015614aec5786840151600019600387901b60f8161c191681555b50505050600190811b01905550565b818103614b06575050565b614b1082546149b8565b6001600160401b03811115614b2757614b276141fc565b614b3581614a6184546149b8565b6000601f821160018114614b675760008315614a83575081850154600184901b600019600386901b1c19821617614a96565b600085815260209020601f19841690600086815260209020845b83811015614ba15782860154825560019586019590910190602001614b81565b5085831015614bbf5781850154600019600388901b60f8161c191681555b5050505050600190811b01905550565b634e487b7160e01b600052601160045260246000fd5b600060018201614bf757614bf7614bcf565b5060010190565b8181038181111561407e5761407e614bcf565b604081526000614c246040830185614354565b8281036020840152614c368185614354565b95945050505050565b8082018082111561407e5761407e614bcf565b60008154614c5f816149b8565b600182168015614c765760018114614c8b57614cbb565b60ff1983168652811515820286019350614cbb565b84600052602060002060005b83811015614cb357815488820152600190910190602001614c97565b505081860193505b50505092915050565b60006143938284614c52565b7f476f7420626c6f6f6420616e642072656c656173656420424b5320746f20000081526000614393601e830184614c52565b7f446f6e6174656420426c6f6f6420616e6420676f7420424b532066726f6d200081526000614393601f830184614c52565b6c023b7ba10313637b7b210313c9609d1b81526000614393600d830184614c52565b6602432b63832b2160cd1b815260006143936007830184614c52565b634e487b7160e01b600052603260045260246000fd5b808202811582820484141761407e5761407e614bcf565b6a02bb4ba34223930bbb2b2160ad1b815260008251614dc581600b850160208701614330565b6f206574682053756365737366756c6c7960801b600b939091019283015250601b01919050565b6f021b430b733b2b2103730b6b2903a37960851b815260008251614e17816010850160208701614330565b6b2053756365737366756c6c7960a01b6010939091019283015250601c01919050565b74021b430b733b2b210213637b7b22a3cb832903a379605d1b815260008251614e6a816015850160208701614330565b6b2053756365737366756c6c7960a01b6015939091019283015250602101919050565b6e021b430b733b2b2103237b1103a379608d1b815260008251614eb781600f850160208701614330565b6b2053756365737366756c6c7960a01b600f939091019283015250601b01919050565b71021b430b733b2b21033b2b73232b9103a37960751b815260008251614f07816012850160208701614330565b6b2053756365737366756c6c7960a01b6012939091019283015250601e01919050565b6b02a3930b739b332b93932b2160a51b815260008351614f5181600c850160208801614330565b670102125a9903a37960c51b600c91840191820152614c366014820185614c52565b6802932b1b2b4bb32b2160bd1b815260008351614f97816009850160208801614330565b690102125a990233937b6960b51b600991840191820152614c366013820185614c52565b7202cb7bab9102237b730ba34b7b7103bb4ba341606d1b815260008251614fe9816013850160208701614330565b6a2069732070656e64696e6760a81b6013939091019283015250601e01919050565b634e487b7160e01b600052603160045260246000fdfe55706461746564206d65646963616c207265706f72742073756365737366756c6c79a2646970667358221220a1e02d5985330cec6e927d30f4a1e3025e38eb7d142f0521e13eb22b7ad6399c64736f6c634300081b0033",
  "linkReferences": {},
  "deployedLinkReferences": {}
}