{
  "_format": "hh-sol-artifact-1",
  "contractName": "BLOODBANK",
  "sourceName": "contracts/BloodBank.sol",
  "abi": [
    {
      "inputs": [],
      "stateMutability": "nonpayable",
      "type": "constructor"
    },
    {
      "anonymous": false,
      "inputs": [
        {
          "indexed": false,
          "internalType": "string",
          "name": "requestId",
          "type": "string"
        },
        {
          "indexed": false,
          "internalType": "string",
          "name": "comment",
          "type": "string"
        }
      ],
      "name": "AddComment",
      "type": "event"
    },
    {
      "anonymous": false,
      "inputs": [
        {
          "indexed": false,
          "internalType": "string",
          "name": "name",
          "type": "string"
        },
        {
          "indexed": false,
          "internalType": "string",
          "name": "bloodType",
          "type": "string"
        }
      ],
      "name": "CreateProfile",
      "type": "event"
    },
    {
      "anonymous": false,
      "inputs": [
        {
          "indexed": false,
          "internalType": "string",
          "name": "timestamp",
          "type": "string"
        },
        {
          "indexed": false,
          "internalType": "string",
          "name": "details",
          "type": "string"
        }
      ],
      "name": "CreateRequestEvent",
      "type": "event"
    },
    {
      "inputs": [
        {
          "internalType": "string",
          "name": "_requestID",
          "type": "string"
        },
        {
          "internalType": "string",
          "name": "_details",
          "type": "string"
        },
        {
          "internalType": "string",
          "name": "_image",
          "type": "string"
        }
      ],
      "name": "CreateRequest",
      "outputs": [],
      "stateMutability": "nonpayable",
      "type": "function"
    },
    {
      "inputs": [
        {
          "internalType": "string",
          "name": "_name",
          "type": "string"
        },
        {
          "internalType": "string",
          "name": "_bloodType",
          "type": "string"
        },
        {
          "internalType": "string",
          "name": "_dob",
          "type": "string"
        },
        {
          "internalType": "string",
          "name": "_gender",
          "type": "string"
        },
        {
          "internalType": "string",
          "name": "_MR",
          "type": "string"
        },
        {
          "internalType": "uint256",
          "name": "_EC",
          "type": "uint256"
        },
        {
          "internalType": "string",
          "name": "_adr",
          "type": "string"
        }
      ],
      "name": "EditMyProfile",
      "outputs": [],
      "stateMutability": "nonpayable",
      "type": "function"
    },
    {
      "inputs": [
        {
          "internalType": "string",
          "name": "_name",
          "type": "string"
        },
        {
          "internalType": "string",
          "name": "_bloodType",
          "type": "string"
        },
        {
          "internalType": "string",
          "name": "_dob",
          "type": "string"
        },
        {
          "internalType": "string",
          "name": "_gender",
          "type": "string"
        },
        {
          "internalType": "string",
          "name": "_MR",
          "type": "string"
        },
        {
          "internalType": "uint256",
          "name": "_EC",
          "type": "uint256"
        },
        {
          "internalType": "string",
          "name": "_addr",
          "type": "string"
        }
      ],
      "name": "LoginUser",
      "outputs": [],
      "stateMutability": "nonpayable",
      "type": "function"
    },
    {
      "inputs": [
        {
          "internalType": "address",
          "name": "",
          "type": "address"
        },
        {
          "internalType": "uint256",
          "name": "",
          "type": "uint256"
        }
      ],
      "name": "activities",
      "outputs": [
        {
          "internalType": "string",
          "name": "",
          "type": "string"
        }
      ],
      "stateMutability": "view",
      "type": "function"
    },
    {
      "inputs": [
        {
          "internalType": "address",
          "name": "",
          "type": "address"
        }
      ],
      "name": "activitiesCount",
      "outputs": [
        {
          "internalType": "uint256",
          "name": "",
          "type": "uint256"
        }
      ],
      "stateMutability": "view",
      "type": "function"
    },
    {
      "inputs": [
        {
          "internalType": "string",
          "name": "_requestId",
          "type": "string"
        },
        {
          "internalType": "string",
          "name": "_comment",
          "type": "string"
        }
      ],
      "name": "addComment",
      "outputs": [],
      "stateMutability": "nonpayable",
      "type": "function"
    },
    {
      "inputs": [
        {
          "internalType": "string",
          "name": "",
          "type": "string"
        }
      ],
      "name": "allRequests",
      "outputs": [
        {
          "internalType": "address",
          "name": "requestor",
          "type": "address"
        },
        {
          "internalType": "string",
          "name": "requestId",
          "type": "string"
        },
        {
          "internalType": "string",
          "name": "details",
          "type": "string"
        },
        {
          "internalType": "string",
          "name": "image",
          "type": "string"
        }
      ],
      "stateMutability": "view",
      "type": "function"
    },
    {
      "inputs": [
        {
          "internalType": "address",
          "name": "",
          "type": "address"
        }
      ],
      "name": "balances",
      "outputs": [
        {
          "internalType": "uint256",
          "name": "",
          "type": "uint256"
        }
      ],
      "stateMutability": "view",
      "type": "function"
    },
    {
      "inputs": [],
      "name": "buyBks",
      "outputs": [],
      "stateMutability": "payable",
      "type": "function"
    },
    {
      "inputs": [
        {
          "internalType": "string",
          "name": "_reqId",
          "type": "string"
        }
      ],
      "name": "deleteRequest",
      "outputs": [],
      "stateMutability": "nonpayable",
      "type": "function"
    },
    {
      "inputs": [],
      "name": "getAllMyRequests",
      "outputs": [
        {
          "components": [
            {
              "internalType": "address",
              "name": "requestor",
              "type": "address"
            },
            {
              "internalType": "string",
              "name": "requestId",
              "type": "string"
            },
            {
              "internalType": "string",
              "name": "details",
              "type": "string"
            },
            {
              "internalType": "string",
              "name": "image",
              "type": "string"
            },
            {
              "components": [
                {
                  "internalType": "address",
                  "name": "commentator",
                  "type": "address"
                },
                {
                  "internalType": "string",
                  "name": "text",
                  "type": "string"
                }
              ],
              "internalType": "struct BLOODBANK.Comment[]",
              "name": "comments",
              "type": "tuple[]"
            }
          ],
          "internalType": "struct BLOODBANK.Requests[]",
          "name": "",
          "type": "tuple[]"
        }
      ],
      "stateMutability": "view",
      "type": "function"
    },
    {
      "inputs": [],
      "name": "getAllNotification",
      "outputs": [
        {
          "internalType": "string[]",
          "name": "",
          "type": "string[]"
        }
      ],
      "stateMutability": "view",
      "type": "function"
    },
    {
      "inputs": [],
      "name": "getAllPendingRequests",
      "outputs": [
        {
          "components": [
            {
              "internalType": "string",
              "name": "text",
              "type": "string"
            },
            {
              "internalType": "string",
              "name": "requestId",
              "type": "string"
            },
            {
              "internalType": "address",
              "name": "commentatorId",
              "type": "address"
            }
          ],
          "internalType": "struct BLOODBANK.Donation[]",
          "name": "",
          "type": "tuple[]"
        }
      ],
      "stateMutability": "view",
      "type": "function"
    },
    {
      "inputs": [],
      "name": "getAllRequests",
      "outputs": [
        {
          "components": [
            {
              "internalType": "address",
              "name": "requestor",
              "type": "address"
            },
            {
              "internalType": "string",
              "name": "requestId",
              "type": "string"
            },
            {
              "internalType": "string",
              "name": "details",
              "type": "string"
            },
            {
              "internalType": "string",
              "name": "image",
              "type": "string"
            },
            {
              "components": [
                {
                  "internalType": "address",
                  "name": "commentator",
                  "type": "address"
                },
                {
                  "internalType": "string",
                  "name": "text",
                  "type": "string"
                }
              ],
              "internalType": "struct BLOODBANK.Comment[]",
              "name": "comments",
              "type": "tuple[]"
            }
          ],
          "internalType": "struct BLOODBANK.Requests[]",
          "name": "",
          "type": "tuple[]"
        }
      ],
      "stateMutability": "view",
      "type": "function"
    },
    {
      "inputs": [
        {
          "internalType": "string",
          "name": "_id",
          "type": "string"
        }
      ],
      "name": "getComments",
      "outputs": [
        {
          "components": [
            {
              "internalType": "address",
              "name": "commentator",
              "type": "address"
            },
            {
              "internalType": "string",
              "name": "text",
              "type": "string"
            }
          ],
          "internalType": "struct BLOODBANK.Comment[]",
          "name": "",
          "type": "tuple[]"
        }
      ],
      "stateMutability": "view",
      "type": "function"
    },
    {
      "inputs": [
        {
          "internalType": "address",
          "name": "_commentatorId",
          "type": "address"
        },
        {
          "internalType": "string",
          "name": "_requestId",
          "type": "string"
        }
      ],
      "name": "initiate",
      "outputs": [],
      "stateMutability": "nonpayable",
      "type": "function"
    },
    {
      "inputs": [
        {
          "internalType": "address",
          "name": "",
          "type": "address"
        }
      ],
      "name": "myNotificationCount",
      "outputs": [
        {
          "internalType": "uint256",
          "name": "",
          "type": "uint256"
        }
      ],
      "stateMutability": "view",
      "type": "function"
    },
    {
      "inputs": [
        {
          "internalType": "address",
          "name": "",
          "type": "address"
        },
        {
          "internalType": "uint256",
          "name": "",
          "type": "uint256"
        }
      ],
      "name": "myPending",
      "outputs": [
        {
          "internalType": "string",
          "name": "text",
          "type": "string"
        },
        {
          "internalType": "string",
          "name": "requestId",
          "type": "string"
        },
        {
          "internalType": "address",
          "name": "commentatorId",
          "type": "address"
        }
      ],
      "stateMutability": "view",
      "type": "function"
    },
    {
      "inputs": [
        {
          "internalType": "address",
          "name": "",
          "type": "address"
        }
      ],
      "name": "myPendingCount",
      "outputs": [
        {
          "internalType": "uint256",
          "name": "",
          "type": "uint256"
        }
      ],
      "stateMutability": "view",
      "type": "function"
    },
    {
      "inputs": [
        {
          "internalType": "address",
          "name": "",
          "type": "address"
        },
        {
          "internalType": "uint256",
          "name": "",
          "type": "uint256"
        }
      ],
      "name": "myRequests",
      "outputs": [
        {
          "internalType": "address",
          "name": "requestor",
          "type": "address"
        },
        {
          "internalType": "string",
          "name": "requestId",
          "type": "string"
        },
        {
          "internalType": "string",
          "name": "details",
          "type": "string"
        },
        {
          "internalType": "string",
          "name": "image",
          "type": "string"
        }
      ],
      "stateMutability": "view",
      "type": "function"
    },
    {
      "inputs": [
        {
          "internalType": "address",
          "name": "",
          "type": "address"
        }
      ],
      "name": "myRequestsCount",
      "outputs": [
        {
          "internalType": "uint256",
          "name": "",
          "type": "uint256"
        }
      ],
      "stateMutability": "view",
      "type": "function"
    },
    {
      "inputs": [],
      "name": "name",
      "outputs": [
        {
          "internalType": "string",
          "name": "",
          "type": "string"
        }
      ],
      "stateMutability": "view",
      "type": "function"
    },
    {
      "inputs": [
        {
          "internalType": "address",
          "name": "",
          "type": "address"
        },
        {
          "internalType": "uint256",
          "name": "",
          "type": "uint256"
        }
      ],
      "name": "notifications",
      "outputs": [
        {
          "internalType": "string",
          "name": "",
          "type": "string"
        }
      ],
      "stateMutability": "view",
      "type": "function"
    },
    {
      "inputs": [],
      "name": "owner",
      "outputs": [
        {
          "internalType": "address",
          "name": "",
          "type": "address"
        }
      ],
      "stateMutability": "view",
      "type": "function"
    },
    {
      "inputs": [
        {
          "internalType": "address",
          "name": "",
          "type": "address"
        }
      ],
      "name": "profile",
      "outputs": [
        {
          "internalType": "address",
          "name": "id",
          "type": "address"
        },
        {
          "internalType": "string",
          "name": "name",
          "type": "string"
        },
        {
          "internalType": "string",
          "name": "bloodType",
          "type": "string"
        },
        {
          "internalType": "string",
          "name": "dateOfBirth",
          "type": "string"
        },
        {
          "internalType": "string",
          "name": "gender",
          "type": "string"
        },
        {
          "internalType": "string",
          "name": "medicalReport",
          "type": "string"
        },
        {
          "internalType": "uint256",
          "name": "emergencyContact",
          "type": "uint256"
        },
        {
          "internalType": "string",
          "name": "myAddress",
          "type": "string"
        }
      ],
      "stateMutability": "view",
      "type": "function"
    },
    {
      "inputs": [
        {
          "internalType": "address",
          "name": "_donor",
          "type": "address"
        },
        {
          "internalType": "string",
          "name": "_reqId",
          "type": "string"
        }
      ],
      "name": "releaseBks",
      "outputs": [],
      "stateMutability": "nonpayable",
      "type": "function"
    },
    {
      "inputs": [
        {
          "internalType": "string",
          "name": "_requestId",
          "type": "string"
        }
      ],
      "name": "removeComment",
      "outputs": [],
      "stateMutability": "nonpayable",
      "type": "function"
    },
    {
      "inputs": [
        {
          "internalType": "uint256",
          "name": "",
          "type": "uint256"
        }
      ],
      "name": "requestIds",
      "outputs": [
        {
          "internalType": "string",
          "name": "",
          "type": "string"
        }
      ],
      "stateMutability": "view",
      "type": "function"
    },
    {
      "inputs": [],
      "name": "tokenName",
      "outputs": [
        {
          "internalType": "string",
          "name": "",
          "type": "string"
        }
      ],
      "stateMutability": "view",
      "type": "function"
    },
    {
      "inputs": [
        {
          "internalType": "address",
          "name": "_id",
          "type": "address"
        },
        {
          "internalType": "uint256",
          "name": "_amount",
          "type": "uint256"
        }
      ],
      "name": "transferBKS",
      "outputs": [],
      "stateMutability": "nonpayable",
      "type": "function"
    },
    {
      "inputs": [],
      "name": "withdraw",
      "outputs": [],
      "stateMutability": "payable",
      "type": "function"
    }
  ],
  "bytecode": "0x60c06040526003608090815262424b5360e81b60a052600290610022908261012f565b50620f424060035534801561003657600080fd5b506040805180820190915260078152661108109b1bdbd960ca1b6020820152600090610062908261012f565b50600180546001600160a01b03191633908117909155600354600091825260096020526040909120556101ed565b634e487b7160e01b600052604160045260246000fd5b600181811c908216806100ba57607f821691505b6020821081036100da57634e487b7160e01b600052602260045260246000fd5b50919050565b601f82111561012a57806000526020600020601f840160051c810160208510156101075750805b601f840160051c820191505b818110156101275760008155600101610113565b50505b505050565b81516001600160401b0381111561014857610148610090565b61015c8161015684546100a6565b846100e0565b6020601f82116001811461019057600083156101785750848201515b600019600385901b1c1916600184901b178455610127565b600084815260208120601f198516915b828110156101c057878501518255602094850194600190920191016101a0565b50848210156101de5786840151600019600387901b60f8161c191681555b50505050600190811b01905550565b6152e8806101fc6000396000f3fe6080604052600436106101d85760003560e01c80637ff2a69811610102578063a8fa57f511610095578063cf0e4b1711610064578063cf0e4b17146105ad578063d2d36e84146105cf578063dbdd0203146105ef578063fb1a002a1461061c57600080fd5b8063a8fa57f514610545578063ae5ff90514610565578063b3074d0214610585578063c779f4951461058d57600080fd5b806398897920116100d157806398897920146104b15780639dd9d0fd146104d1578063a63a2ec114610505578063a8edc3af1461052557600080fd5b80637ff2a698146103fd5780638796ba8c1461042a5780638da5cb5b1461044a5780638e0c8ab51461048257600080fd5b80633ccfd60b1161017a5780636bd05f35116101495780636bd05f35146103795780636c02a9311461039b5780636f59330d146103b057806370c63fcc146103d057600080fd5b80633ccfd60b146102f4578063513c0825146102fc57806365d0bddd1461032c578063699709461461034c57600080fd5b8063105a02e8116101b6578063105a02e81461024a5780631b3cd9661461026c57806321b197571461028c57806327e235e3146102c757600080fd5b8063066db65f146101dd57806306fdde03146101ff578063091f84221461022a575b600080fd5b3480156101e957600080fd5b506101fd6101f836600461447e565b610631565b005b34801561020b57600080fd5b50610214610952565b604051610221919061455f565b60405180910390f35b34801561023657600080fd5b506101fd610245366004614595565b6109e0565b34801561025657600080fd5b5061025f6113f8565b60405161022191906145e2565b34801561027857600080fd5b506101fd61028736600461471f565b6117fa565b34801561029857600080fd5b506102b96102a736600461483a565b60076020526000908152604090205481565b604051908152602001610221565b3480156102d357600080fd5b506102b96102e236600461483a565b60096020526000908152604090205481565b6101fd611991565b34801561030857600080fd5b5061031c610317366004614855565b611aca565b6040516102219493929190614891565b34801561033857600080fd5b506102146103473660046148e6565b611ca0565b34801561035857600080fd5b506102b961036736600461483a565b600d6020526000908152604090205481565b34801561038557600080fd5b5061038e611cc4565b6040516102219190614910565b3480156103a757600080fd5b50610214611ef3565b3480156103bc57600080fd5b506101fd6103cb36600461471f565b611f00565b3480156103dc57600080fd5b506103f06103eb366004614855565b612396565b60405161022191906149a4565b34801561040957600080fd5b506102b961041836600461483a565b600f6020526000908152604090205481565b34801561043657600080fd5b50610214610445366004614a1d565b6124bd565b34801561045657600080fd5b5060015461046a906001600160a01b031681565b6040516001600160a01b039091168152602001610221565b34801561048e57600080fd5b506104a261049d3660046148e6565b6124e8565b60405161022193929190614a36565b3480156104bd57600080fd5b506102146104cc3660046148e6565b61262e565b3480156104dd57600080fd5b506104f16104ec36600461483a565b612652565b604051610221989796959493929190614a74565b34801561051157600080fd5b506101fd6105203660046148e6565b6129cd565b34801561053157600080fd5b506101fd610540366004614855565b612c0f565b34801561055157600080fd5b506101fd610560366004614595565b612cc0565b34801561057157600080fd5b506101fd610580366004614b10565b6131e5565b6101fd6132ef565b34801561059957600080fd5b506101fd6105a8366004614855565b613655565b3480156105b957600080fd5b506105c2613889565b6040516102219190614b61565b3480156105db57600080fd5b5061031c6105ea3660046148e6565b6139cc565b3480156105fb57600080fd5b506102b961060a36600461483a565b600b6020526000908152604090205481565b34801561062857600080fd5b5061025f613a03565b336000908152600960205260409020546064111561068d5760405162461bcd60e51b81526020600482015260146024820152733737ba1032b737bab3b4102125a9903a37b5b2b760611b60448201526064015b60405180910390fd5b600060058460405161069f9190614bba565b90815260405190819003602001902080546001600160a01b031916331781559050600181016106ce8582614c58565b50600281016106dd8482614c58565b50600381016106ec8382614c58565b50806005856040516106fe9190614bba565b908152604051908190036020019020815481546001600160a01b0319166001600160a01b0390911617815560018082019061073b90840182614d19565b5060028181019061074e90840182614d19565b5060038181019061076190840182614d19565b50600482810180546107769284019190614284565b5050600680546001810182556000919091527ff652222313e28459528d920b65115c16c04f3efc82aaedc97be59f3f377c0d3f0190506107b68582614c58565b503360009081526007602052604081208054916107d283614e03565b9091555050336000908152600860209081526040808320600783528184205484529091529020815481546001600160a01b0319166001600160a01b0391909116178155819060018082019061082990840182614d19565b5060028181019061083c90840182614d19565b5060038181019061084f90840182614d19565b50600482810180546108649284019190614284565b5050336000908152600960205260408120805460649350909190610889908490614e1c565b9091555050336000908152600b602052604081208054916108a983614e03565b90915550506040517f43726561746564206120726571756573742053756365737366756c6c790000006020820152603d0160408051601f19818403018152918152336000908152600a6020908152828220600b8252838320548352905220906109129082614c58565b507f7e54fbed74ec23d72999b7455780e98e634868f26c4de891d18c09bdb5f8c4578484604051610944929190614e2f565b60405180910390a150505050565b6000805461095f90614bd6565b80601f016020809104026020016040519081016040528092919081815260200182805461098b90614bd6565b80156109d85780601f106109ad576101008083540402835291602001916109d8565b820191906000526020600020905b8154815290600101906020018083116109bb57829003601f168201915b505050505081565b60006005826040516109f29190614bba565b90815260408051918290036020908101832060a0840190925281546001600160a01b0316835260018201805491840191610a2b90614bd6565b80601f0160208091040260200160405190810160405280929190818152602001828054610a5790614bd6565b8015610aa45780601f10610a7957610100808354040283529160200191610aa4565b820191906000526020600020905b815481529060010190602001808311610a8757829003601f168201915b50505050508152602001600282018054610abd90614bd6565b80601f0160208091040260200160405190810160405280929190818152602001828054610ae990614bd6565b8015610b365780601f10610b0b57610100808354040283529160200191610b36565b820191906000526020600020905b815481529060010190602001808311610b1957829003601f168201915b50505050508152602001600382018054610b4f90614bd6565b80601f0160208091040260200160405190810160405280929190818152602001828054610b7b90614bd6565b8015610bc85780601f10610b9d57610100808354040283529160200191610bc8565b820191906000526020600020905b815481529060010190602001808311610bab57829003601f168201915b5050505050815260200160048201805480602002602001604051908101604052809291908181526020016000905b82821015610ccf576000848152602090819020604080518082019091526002850290910180546001600160a01b031682526001810180549293919291840191610c3e90614bd6565b80601f0160208091040260200160405190810160405280929190818152602001828054610c6a90614bd6565b8015610cb75780601f10610c8c57610100808354040283529160200191610cb7565b820191906000526020600020905b815481529060010190602001808311610c9a57829003601f168201915b50505050508152505081526020019060010190610bf6565b50505050815250509050806020015151600003610d225760405162461bcd60e51b815260206004820152601160248201527072657120646f65736e742065786973747360781b6044820152606401610684565b80516001600160a01b03163314610d7b5760405162461bcd60e51b815260206004820152601a60248201527f6f6e6c7920726571756573746f722063616e2072656c656173650000000000006044820152606401610684565b6001546001600160a01b03166000908152600960205260408120805460039290610da6908490614e5d565b90915550506001600160a01b0383166000908152600960205260408120805460619290610dd4908490614e5d565b90915550600190505b336000908152600f60205260409020548111610f5c578251602080850191909120336000908152600e8352604080822085835290935282902091519091610e2991600190910190614ee2565b604051809103902003610f1857336000908152600e60209081526040808320600f8352818420548452909152808220838352912080610e688382614d19565b50600181810190610e7b90840182614d19565b50600291820154910180546001600160a01b0319166001600160a01b03909216919091179055336000908152600e60209081526040808320600f8352818420548452909152812090610ecd8282614309565b610edb600183016000614309565b5060020180546001600160a01b0319169055336000908152600f60205260408120805460019290610f0d908490614e1c565b90915550610f5c9050565b610f4a6040518060400160405280601181526020017014995c5d595cdd081b9bdd08199bdd5b99607a1b815250613da2565b80610f5481614e03565b915050610ddd565b5060015b6001600160a01b0384166000908152600f602052604090205481116111015782516020808501919091206001600160a01b0386166000908152600e8352604080822085835290935282902091519091610fbe91600190910190614ee2565b6040518091039020036110bd576001600160a01b0384166000908152600e60209081526040808320600f83528184205484529091528082208383529120806110068382614d19565b5060018181019061101990840182614d19565b50600291820154910180546001600160a01b0319166001600160a01b0392831617905584166000908152600e60209081526040808320600f83528184205484529091528120906110698282614309565b611077600183016000614309565b5060020180546001600160a01b03191690556001600160a01b0384166000908152600f602052604081208054600192906110b2908490614e1c565b909155506111019050565b6110ef6040518060400160405280601181526020017014995c5d595cdd081b9bdd08199bdd5b99607a1b815250613da2565b806110f981614e03565b915050610f60565b50336000908152600b6020526040812080549161111d83614e03565b90915550506001600160a01b038316600090815260046020908152604091829020915161114e926001019101614eee565b60408051601f19818403018152918152336000908152600a6020908152828220600b8252838320548352905220906111869082614c58565b506001600160a01b0383166000908152600b602052604081208054916111ab83614e03565b90915550503360009081526004602090815260409182902091516111d3926001019101614f20565b60408051601f198184030181529181526001600160a01b0385166000908152600a6020908152828220600b8252838320548352905220906112149082614c58565b506001546001600160a01b03166000908152600b6020526040812080549161123b83614e03565b9091555050604080517f4761696e65642033424b532066726f6d207472616e73616374696f6e7320666f602082015261039160f51b918101919091526bffffffffffffffffffffffff19606085901b16604282015260560160408051601f198184030181529181526001546001600160a01b03166000908152600a6020908152828220600b8252838320548352905220906112d69082614c58565b50336000908152600d602052604081208054916112f283614e03565b90915550506001600160a01b0383166000908152600460209081526040918290209151611323926001019101614f52565b60408051601f19818403018152918152336000908152600c6020908152828220600d82528383205483529052209061135b9082614c58565b506001600160a01b0383166000908152600d6020526040812080549161138083614e03565b90915550503360009081526004602090815260409182902091516113a8926001019101614f74565b60408051601f198184030181529181526001600160a01b0385166000908152600c6020908152828220600d8252838320548352905220906113e99082614c58565b506113f382613de5565b505050565b336000908152600760205260409020546060906114575760405162461bcd60e51b815260206004820152601d60248201527f596f752068617665206e6f2052657175657374732074696c6c206e6f770000006044820152606401610684565b3360009081526007602052604081205490816001600160401b03811115611480576114806143db565b6040519080825280602002602001820160405280156114b957816020015b6114a6614343565b81526020019060019003908161149e5790505b50905060005b828110156117f357336000908152600860205260408120906114e2836001614e5d565b81526020808201929092526040908101600020815160a0810190925280546001600160a01b03168252600181018054929391929184019161152290614bd6565b80601f016020809104026020016040519081016040528092919081815260200182805461154e90614bd6565b801561159b5780601f106115705761010080835404028352916020019161159b565b820191906000526020600020905b81548152906001019060200180831161157e57829003601f168201915b505050505081526020016002820180546115b490614bd6565b80601f01602080910402602001604051908101604052809291908181526020018280546115e090614bd6565b801561162d5780601f106116025761010080835404028352916020019161162d565b820191906000526020600020905b81548152906001019060200180831161161057829003601f168201915b5050505050815260200160038201805461164690614bd6565b80601f016020809104026020016040519081016040528092919081815260200182805461167290614bd6565b80156116bf5780601f10611694576101008083540402835291602001916116bf565b820191906000526020600020905b8154815290600101906020018083116116a257829003601f168201915b5050505050815260200160048201805480602002602001604051908101604052809291908181526020016000905b828210156117c6576000848152602090819020604080518082019091526002850290910180546001600160a01b03168252600181018054929391929184019161173590614bd6565b80601f016020809104026020016040519081016040528092919081815260200182805461176190614bd6565b80156117ae5780601f10611783576101008083540402835291602001916117ae565b820191906000526020600020905b81548152906001019060200180831161179157829003601f168201915b505050505081525050815260200190600101906116ed565b50505050815250508282815181106117e0576117e0614f90565b60209081029190910101526001016114bf565b5092915050565b336000908152600460205260409020546001600160a01b0316156118595760405162461bcd60e51b815260206004820152601660248201527570726f66696c6520616c72656164792065786973747360501b6044820152606401610684565b60408051610100810182523380825260208083018b81528385018b9052606084018a90526080840189905260a0840188905260c0840187905260e0840186905260009283526004909152929020815181546001600160a01b0319166001600160a01b0390911617815591519091829160018201906118d79082614c58565b50604082015160028201906118ec9082614c58565b50606082015160038201906119019082614c58565b50608082015160048201906119169082614c58565b5060a0820151600582019061192b9082614c58565b5060c0820151600682015560e0820151600782019061194a9082614c58565b509050507f46b183c16a39f1e155acd80fd090bc7dd91637962b2310fdb79bdcb2e2000c99888860405161197f929190614e2f565b60405180910390a15050505050505050565b336000908152600960205260409020546119f75760405162461bcd60e51b815260206004820152602160248201527f596f7520646f6e74206861766520616e7920424b5320746f20776974686472616044820152607760f81b6064820152608401610684565b33600090815260096020526040812054611a17906512309ce54000614fa6565b604051909150339082156108fc029083906000818181858888f19350505050158015611a47573d6000803e3d6000fd5b50336000908152600960209081526040808320839055600b9091528120805491611a7083614e03565b9190505550611a7e816140ef565b604051602001611a8e9190614fbd565b60408051601f19818403018152918152336000908152600a6020908152828220600b825283832054835290522090611ac69082614c58565b5050565b8051602081830181018051600582529282019190930120915280546001820180546001600160a01b039092169291611b0190614bd6565b80601f0160208091040260200160405190810160405280929190818152602001828054611b2d90614bd6565b8015611b7a5780601f10611b4f57610100808354040283529160200191611b7a565b820191906000526020600020905b815481529060010190602001808311611b5d57829003601f168201915b505050505090806002018054611b8f90614bd6565b80601f0160208091040260200160405190810160405280929190818152602001828054611bbb90614bd6565b8015611c085780601f10611bdd57610100808354040283529160200191611c08565b820191906000526020600020905b815481529060010190602001808311611beb57829003601f168201915b505050505090806003018054611c1d90614bd6565b80601f0160208091040260200160405190810160405280929190818152602001828054611c4990614bd6565b8015611c965780601f10611c6b57610100808354040283529160200191611c96565b820191906000526020600020905b815481529060010190602001808311611c7957829003601f168201915b5050505050905084565b600a6020908152600092835260408084209091529082529020805461095f90614bd6565b336000908152600f6020526040812054606091906001600160401b03811115611cef57611cef6143db565b604051908082528060200260200182016040528015611d3c57816020015b60408051606080820183528082526020820152600091810191909152815260200190600190039081611d0d5790505b50905060005b336000908152600f6020526040902054811015611eed57336000908152600e6020526040812090611d74836001614e5d565b8152602001908152602001600020604051806060016040529081600082018054611d9d90614bd6565b80601f0160208091040260200160405190810160405280929190818152602001828054611dc990614bd6565b8015611e165780601f10611deb57610100808354040283529160200191611e16565b820191906000526020600020905b815481529060010190602001808311611df957829003601f168201915b50505050508152602001600182018054611e2f90614bd6565b80601f0160208091040260200160405190810160405280929190818152602001828054611e5b90614bd6565b8015611ea85780601f10611e7d57610100808354040283529160200191611ea8565b820191906000526020600020905b815481529060010190602001808311611e8b57829003601f168201915b5050509183525050600291909101546001600160a01b03166020909101528251839083908110611eda57611eda614f90565b6020908102919091010152600101611d42565b50919050565b6002805461095f90614bd6565b336000818152600460205260409020805490916001600160a01b0390911614611f6b5760405162461bcd60e51b815260206004820152601d60248201527f596f7520617265206e6f74207468652070726f66696c65206f776e65720000006044820152606401610684565b875115611fec5760018101611f808982614c58565b50336000908152600b60205260408120805491611f9c83614e03565b919050555087604051602001611fb2919061500a565b60408051601f19818403018152918152336000908152600a6020908152828220600b825283832054835290522090611fea9082614c58565b505b86511561206d57600281016120018882614c58565b50336000908152600b6020526040812080549161201d83614e03565b9190505550866040516020016120339190615058565b60408051601f19818403018152918152336000908152600a6020908152828220600b82528383205483529052209061206b9082614c58565b505b8551156120ee57600381016120828782614c58565b50336000908152600b6020526040812080549161209e83614e03565b9190505550856040516020016120b491906150ab565b60408051601f19818403018152918152336000908152600a6020908152828220600b8252838320548352905220906120ec9082614c58565b505b84511561216f57600481016121038682614c58565b50336000908152600b6020526040812080549161211f83614e03565b91905055508460405160200161213591906150f8565b60408051601f19818403018152918152336000908152600a6020908152828220600b82528383205483529052209061216d9082614c58565b505b83511561226657600581016121848582614c58565b50336000908152600b602052604081208054916121a083614e03565b919050555060405180606001604052806022815260200161529160229139336000908152600a60209081526040808320600b83528184205484529091529020906121ea9082614c58565b50336000908152600d6020526040812080549161220683614e03565b90915550506040805180820182526016815275155c19185d1959081359591a58d85b0814995c1bdc9d60521b602080830191909152336000908152600c8252838120600d835284822054825290915291909120906122649082614c58565b505b821561230b5760068101839055336000908152600b6020526040812080549161228e83614e03565b909155505060405172021b430b733b2b21021b7b73a30b1ba103a379606d1b6020820152603381018490526b2053756365737366756c6c7960a01b6053820152605f0160408051601f19818403018152918152336000908152600a6020908152828220600b8252838320548352905220906123099082614c58565b505b81511561238c57600781016123208382614c58565b50336000908152600b6020526040812080549161233c83614e03565b9190505550816040516020016123529190615148565b60408051601f19818403018152918152336000908152600a6020908152828220600b82528383205483529052209061238a9082614c58565b505b5050505050505050565b60606005826040516123a89190614bba565b9081526020016040518091039020600401805480602002602001604051908101604052809291908181526020016000905b828210156124b2576000848152602090819020604080518082019091526002850290910180546001600160a01b03168252600181018054929391929184019161242190614bd6565b80601f016020809104026020016040519081016040528092919081815260200182805461244d90614bd6565b801561249a5780601f1061246f5761010080835404028352916020019161249a565b820191906000526020600020905b81548152906001019060200180831161247d57829003601f168201915b505050505081525050815260200190600101906123d9565b505050509050919050565b600681815481106124cd57600080fd5b90600052602060002001600091509050805461095f90614bd6565b600e60209081526000928352604080842090915290825290208054819061250e90614bd6565b80601f016020809104026020016040519081016040528092919081815260200182805461253a90614bd6565b80156125875780601f1061255c57610100808354040283529160200191612587565b820191906000526020600020905b81548152906001019060200180831161256a57829003601f168201915b50505050509080600101805461259c90614bd6565b80601f01602080910402602001604051908101604052809291908181526020018280546125c890614bd6565b80156126155780601f106125ea57610100808354040283529160200191612615565b820191906000526020600020905b8154815290600101906020018083116125f857829003601f168201915b505050600290930154919250506001600160a01b031683565b600c6020908152600092835260408084209091529082529020805461095f90614bd6565b600460205260009081526040902080546001820180546001600160a01b03909216929161267e90614bd6565b80601f01602080910402602001604051908101604052809291908181526020018280546126aa90614bd6565b80156126f75780601f106126cc576101008083540402835291602001916126f7565b820191906000526020600020905b8154815290600101906020018083116126da57829003601f168201915b50505050509080600201805461270c90614bd6565b80601f016020809104026020016040519081016040528092919081815260200182805461273890614bd6565b80156127855780601f1061275a57610100808354040283529160200191612785565b820191906000526020600020905b81548152906001019060200180831161276857829003601f168201915b50505050509080600301805461279a90614bd6565b80601f01602080910402602001604051908101604052809291908181526020018280546127c690614bd6565b80156128135780601f106127e857610100808354040283529160200191612813565b820191906000526020600020905b8154815290600101906020018083116127f657829003601f168201915b50505050509080600401805461282890614bd6565b80601f016020809104026020016040519081016040528092919081815260200182805461285490614bd6565b80156128a15780601f10612876576101008083540402835291602001916128a1565b820191906000526020600020905b81548152906001019060200180831161288457829003601f168201915b5050505050908060050180546128b690614bd6565b80601f01602080910402602001604051908101604052809291908181526020018280546128e290614bd6565b801561292f5780601f106129045761010080835404028352916020019161292f565b820191906000526020600020905b81548152906001019060200180831161291257829003601f168201915b50505050509080600601549080600701805461294a90614bd6565b80601f016020809104026020016040519081016040528092919081815260200182805461297690614bd6565b80156129c35780601f10612998576101008083540402835291602001916129c3565b820191906000526020600020905b8154815290600101906020018083116129a657829003601f168201915b5050505050905088565b33600090815260096020526040902054612a295760405162461bcd60e51b815260206004820152601860248201527f596f7520646f6e74206861766520616e7920746f6b656e7300000000000000006044820152606401610684565b33600090815260096020526040902054811115612a985760405162461bcd60e51b815260206004820152602760248201527f596f7520646f6e74206861766520656e6f75676820746f6b656e7320746f2073604482015266656e6420424b5360c81b6064820152608401610684565b6001600160a01b03821660009081526009602052604081208054839290612ac0908490614e5d565b90915550503360009081526009602052604081208054839290612ae4908490614e1c565b9091555050336000908152600b60205260408120805491612b0483614e03565b9190505550612b12816140ef565b6001600160a01b0383166000908152600460209081526040918290209151612b3f93926001019101615199565b60408051601f19818403018152918152336000908152600a6020908152828220600b825283832054835290522090612b779082614c58565b506001600160a01b0382166000908152600b60205260408120805491612b9c83614e03565b9190505550612baa816140ef565b336000908152600460209081526040918290209151612bce939260010191016151e2565b60408051601f198184030181529181526001600160a01b0384166000908152600a6020908152828220600b8252838320548352905220906113f39082614c58565b336001600160a01b0316600582604051612c299190614bba565b908152604051908190036020019020546001600160a01b031614612c8f5760405162461bcd60e51b815260206004820181905260248201527f4f6e6c7920526571756573746f722063616e2064656c657465526571756573746044820152606401610684565b612c9881613de5565b336000908152600960205260408120805460619290612cb8908490614e5d565b909155505050565b6001600160a01b03821660009081526004602052604081206001018054612ce690614bd6565b80601f0160208091040260200160405190810160405280929190818152602001828054612d1290614bd6565b8015612d5f5780601f10612d3457610100808354040283529160200191612d5f565b820191906000526020600020905b815481529060010190602001808311612d4257829003601f168201915b505050505090506000600583604051612d789190614bba565b90815260408051918290036020908101832060a0840190925281546001600160a01b0316835260018201805491840191612db190614bd6565b80601f0160208091040260200160405190810160405280929190818152602001828054612ddd90614bd6565b8015612e2a5780601f10612dff57610100808354040283529160200191612e2a565b820191906000526020600020905b815481529060010190602001808311612e0d57829003601f168201915b50505050508152602001600282018054612e4390614bd6565b80601f0160208091040260200160405190810160405280929190818152602001828054612e6f90614bd6565b8015612ebc5780601f10612e9157610100808354040283529160200191612ebc565b820191906000526020600020905b815481529060010190602001808311612e9f57829003601f168201915b50505050508152602001600382018054612ed590614bd6565b80601f0160208091040260200160405190810160405280929190818152602001828054612f0190614bd6565b8015612f4e5780601f10612f2357610100808354040283529160200191612f4e565b820191906000526020600020905b815481529060010190602001808311612f3157829003601f168201915b5050505050815260200160048201805480602002602001604051908101604052809291908181526020016000905b82821015613055576000848152602090819020604080518082019091526002850290910180546001600160a01b031682526001810180549293919291840191612fc490614bd6565b80601f0160208091040260200160405190810160405280929190818152602001828054612ff090614bd6565b801561303d5780601f106130125761010080835404028352916020019161303d565b820191906000526020600020905b81548152906001019060200180831161302057829003601f168201915b50505050508152505081526020019060010190612f7c565b50505091525050604080516060808201835280825260208201526000918101919091529091508260405160200161308c919061522a565b60408051601f19818403018152918152908252602083810151838201526001600160a01b03871683830152336000908152600f9091529081208054916130d183614e03565b9091555050336000908152600e60209081526040808320600f83528184205484529091529020815182919081906131089082614c58565b506020820151600182019061311d9082614c58565b5060409182015160029190910180546001600160a01b0319166001600160a01b0392831617905586166000908152600f60205290812080549161315f83614e03565b90915550506001600160a01b0385166000908152600e60209081526040808320600f835281842054845290915290208151829190819061319f9082614c58565b50602082015160018201906131b49082614c58565b5060409190910151600290910180546001600160a01b0319166001600160a01b039092169190911790555050505050565b6005826040516131f59190614bba565b9081526020016040518091039020600101805461321190614bd6565b90506000036132625760405162461bcd60e51b815260206004820152601a60248201527f546865205265717565737420446f65736e2774204578697374730000000000006044820152606401610684565b60006005836040516132749190614bba565b908152604080516020928190038301812081830190925233815282810185815260048301805460018082018355600092835295909120835160029092020180546001600160a01b0319166001600160a01b03909216919091178155905192945090928392908201906132e69082614c58565b50505050505050565b6001546001600160a01b031633036133415760405162461bcd60e51b81526020600482015260156024820152744f776e65722043616e742062757920746f6b656e7360581b6044820152606401610684565b3466038d7ea4c68000148061335c57503466071afd498d0000145b6133c15760405162461bcd60e51b815260206004820152603060248201527f596f752073686f756c642070617920302e30303120657468206f7220302e303060448201526f322065746820746f2062757920424b5360801b6064820152608401610684565b3466071afd498d000003613517573360009081526009602052604081208054606492906133ef908490614e5d565b90915550506001546001600160a01b0316600090815260096020526040812080546064929061341f908490614e1c565b9091555050336000908152600b6020526040812080549161343f83614e03565b9091555050604080518082018252601981527f426f7567687420313030424b532073756365737366756c6c7900000000000000602080830191909152336000908152600a8252838120600b835284822054825290915291909120906134a49082614c58565b50336000908152600d602052604081208054916134c083614e03565b9091555050604080518082018252600d8082526c426f7567687420313030426b7360981b602080840191909152336000908152600c825284812092825284812054815291905291909120906135159082614c58565b505b3466038d7ea4c680000361365357336000908152600960205260408082206032908190556001546001600160a01b0316835290822080549192909161355d908490614e1c565b9091555050336000908152600b6020526040812080549161357d83614e03565b9091555050604080518082018252601881527f426f75676874203530424b532073756365737366756c6c790000000000000000602080830191909152336000908152600a8252838120600b835284822054825290915291909120906135e29082614c58565b50336000908152600d602052604081208054916135fe83614e03565b9091555050604080518082018252600c8082526b426f75676874203530424b5360a01b602080840191909152336000908152918152838220600d8252848320548352905291909120906136519082614c58565b505b565b6005816040516136659190614bba565b9081526020016040518091039020600101805461368190614bd6565b90506000036136ca5760405162461bcd60e51b815260206004820152601560248201527414995c5d595cdd08191bd95cdb89dd08195e1a5cdd605a1b6044820152606401610684565b60006005826040516136dc9190614bba565b90815260405190819003602001902090506000196000805b600484015481101561375257336001600160a01b031684600401828154811061371f5761371f614f90565b60009182526020909120600290910201546001600160a01b03160361374a5760019150809250613752565b6001016136f4565b506001811515146137a55760405162461bcd60e51b815260206004820152601a60248201527f596f757220636f6d6d656e7420646f65736e27742065786973740000000000006044820152606401610684565b6004830154821015613883576004830180546137c390600190614e1c565b815481106137d3576137d3614f90565b90600052602060002090600202018360040183815481106137f6576137f6614f90565b60009182526020909120825460029092020180546001600160a01b0319166001600160a01b0390921691909117815560018082019061383790840182614d19565b5050506004830180548061384d5761384d61527a565b60008281526020812060026000199093019283020180546001600160a01b03191681559061387e6001830182614309565b505090555b50505050565b336000908152600b6020526040812054606091906001600160401b038111156138b4576138b46143db565b6040519080825280602002602001820160405280156138e757816020015b60608152602001906001900390816138d25790505b50905060005b336000908152600b6020526040902054811015611eed57336000908152600a602090815260408083208484529091529020805461392990614bd6565b80601f016020809104026020016040519081016040528092919081815260200182805461395590614bd6565b80156139a25780601f10613977576101008083540402835291602001916139a2565b820191906000526020600020905b81548152906001019060200180831161398557829003601f168201915b50505050508282815181106139b9576139b9614f90565b60209081029190910101526001016138ed565b6008602090815260009283526040808420909152908252902080546001820180546001600160a01b039092169291611b0190614bd6565b6006546060906000906001600160401b03811115613a2357613a236143db565b604051908082528060200260200182016040528015613a5c57816020015b613a49614343565b815260200190600190039081613a415790505b50905060005b600654811015611eed57600560068281548110613a8157613a81614f90565b90600052602060002001604051613a989190614ee2565b90815260408051918290036020908101832060a0840190925281546001600160a01b0316835260018201805491840191613ad190614bd6565b80601f0160208091040260200160405190810160405280929190818152602001828054613afd90614bd6565b8015613b4a5780601f10613b1f57610100808354040283529160200191613b4a565b820191906000526020600020905b815481529060010190602001808311613b2d57829003601f168201915b50505050508152602001600282018054613b6390614bd6565b80601f0160208091040260200160405190810160405280929190818152602001828054613b8f90614bd6565b8015613bdc5780601f10613bb157610100808354040283529160200191613bdc565b820191906000526020600020905b815481529060010190602001808311613bbf57829003601f168201915b50505050508152602001600382018054613bf590614bd6565b80601f0160208091040260200160405190810160405280929190818152602001828054613c2190614bd6565b8015613c6e5780601f10613c4357610100808354040283529160200191613c6e565b820191906000526020600020905b815481529060010190602001808311613c5157829003601f168201915b5050505050815260200160048201805480602002602001604051908101604052809291908181526020016000905b82821015613d75576000848152602090819020604080518082019091526002850290910180546001600160a01b031682526001810180549293919291840191613ce490614bd6565b80601f0160208091040260200160405190810160405280929190818152602001828054613d1090614bd6565b8015613d5d5780601f10613d3257610100808354040283529160200191613d5d565b820191906000526020600020905b815481529060010190602001808311613d4057829003601f168201915b50505050508152505081526020019060010190613c9c565b5050505081525050828281518110613d8f57613d8f614f90565b6020908102919091010152600101613a62565b61365181604051602401613db6919061455f565b60408051601f198184030181529190526020810180516001600160e01b031663104c13eb60e21b179052614181565b60005b600654811015613ec15760068181548110613e0557613e05614f90565b90600052602060002001604051613e1c9190614ee2565b6040518091039020828051906020012003613eb95760068054613e4190600190614e1c565b81548110613e5157613e51614f90565b9060005260206000200160068281548110613e6e57613e6e614f90565b906000526020600020019081613e849190614d19565b506006805480613e9657613e9661527a565b600190038181906000526020600020016000613eb29190614309565b9055613ec1565b600101613de8565b5060015b33600090815260076020526040902054811161408857815160208084019190912033600090815260088352604080822085835290935282902091519091613f1191600190910190614ee2565b60405180910390200361404557336000908152600860209081526040808320600783528184205484529091528082208383529120815481546001600160a01b0319166001600160a01b03909116178155600180820190613f7390840182614d19565b50600281810190613f8690840182614d19565b50600381810190613f9990840182614d19565b5060048281018054613fae9284019190614284565b505033600090815260086020908152604080832060078352818420548452909152812080546001600160a01b03191681559150613fee6001830182614309565b613ffc600283016000614309565b61400a600383016000614309565b61401860048301600061437b565b505033600090815260076020526040812080546001929061403a908490614e1c565b909155506140889050565b6140766040518060400160405280601081526020016f14995c481a59081b9bdd08199bdd5b9960821b815250613da2565b8061408081614e03565b915050613ec5565b506005816040516140999190614bba565b90815260405190819003602001902080546001600160a01b031916815560006140c56001830182614309565b6140d3600283016000614309565b6140e1600383016000614309565b6113f360048301600061437b565b606060006140fc8361418a565b60010190506000816001600160401b0381111561411b5761411b6143db565b6040519080825280601f01601f191660200182016040528015614145576020820181803683370190505b5090508181016020015b600019016f181899199a1a9b1b9c1cb0b131b232b360811b600a86061a8153600a850494508461414f57509392505050565b61365181614263565b60008072184f03e93ff9f4daa797ed6e38ed64bf6a1f0160401b83106141c95772184f03e93ff9f4daa797ed6e38ed64bf6a1f0160401b830492506040015b6d04ee2d6d415b85acef810000000083106141f5576d04ee2d6d415b85acef8100000000830492506020015b662386f26fc10000831061421357662386f26fc10000830492506010015b6305f5e100831061422b576305f5e100830492506008015b612710831061423f57612710830492506004015b60648310614251576064830492506002015b600a831061425d576001015b92915050565b60006a636f6e736f6c652e6c6f679050600080835160208501845afa505050565b8280548282559060005260206000209060020281019282156142f95760005260206000209160020282015b828111156142f957825482546001600160a01b0319166001600160a01b0390911617825582826001808201906142e790840182614d19565b505050916002019190600201906142af565b50614305929150614398565b5090565b50805461431590614bd6565b6000825580601f10614325575050565b601f01602090049060005260206000209081019061365191906143c6565b6040518060a0016040528060006001600160a01b03168152602001606081526020016060815260200160608152602001606081525090565b508054600082556002029060005260206000209081019061365191905b808211156143055780546001600160a01b031916815560006143bd6001830182614309565b50600201614398565b5b8082111561430557600081556001016143c7565b634e487b7160e01b600052604160045260246000fd5b600082601f83011261440257600080fd5b81356001600160401b0381111561441b5761441b6143db565b604051601f8201601f19908116603f011681016001600160401b0381118282101715614449576144496143db565b60405281815283820160200185101561446157600080fd5b816020850160208301376000918101602001919091529392505050565b60008060006060848603121561449357600080fd5b83356001600160401b038111156144a957600080fd5b6144b5868287016143f1565b93505060208401356001600160401b038111156144d157600080fd5b6144dd868287016143f1565b92505060408401356001600160401b038111156144f957600080fd5b614505868287016143f1565b9150509250925092565b60005b8381101561452a578181015183820152602001614512565b50506000910152565b6000815180845261454b81602086016020860161450f565b601f01601f19169290920160200192915050565b6020815260006145726020830184614533565b9392505050565b80356001600160a01b038116811461459057600080fd5b919050565b600080604083850312156145a857600080fd5b6145b183614579565b915060208301356001600160401b038111156145cc57600080fd5b6145d8858286016143f1565b9150509250929050565b6000602082016020835280845180835260408501915060408160051b86010192506020860160005b8281101561471357868503603f19018452815180516001600160a01b0316865260208082015160a09188018290529061464590880182614533565b90506040820151878203604089015261465e8282614533565b915050606082015187820360608901526146788282614533565b91505060808201519150868103608088015280825180835260208301915060208160051b84010160208501945060005b828110156146f957848203601f19018452855180516001600160a01b031683526020908101516040918401829052906146e390840182614533565b60209788019795909501949250506001016146a8565b50985050506020958601959390930192505060010161460a565b50929695505050505050565b600080600080600080600060e0888a03121561473a57600080fd5b87356001600160401b0381111561475057600080fd5b61475c8a828b016143f1565b97505060208801356001600160401b0381111561477857600080fd5b6147848a828b016143f1565b96505060408801356001600160401b038111156147a057600080fd5b6147ac8a828b016143f1565b95505060608801356001600160401b038111156147c857600080fd5b6147d48a828b016143f1565b94505060808801356001600160401b038111156147f057600080fd5b6147fc8a828b016143f1565b93505060a0880135915060c08801356001600160401b0381111561481f57600080fd5b61482b8a828b016143f1565b91505092959891949750929550565b60006020828403121561484c57600080fd5b61457282614579565b60006020828403121561486757600080fd5b81356001600160401b0381111561487d57600080fd5b614889848285016143f1565b949350505050565b6001600160a01b03851681526080602082018190526000906148b590830186614533565b82810360408401526148c78186614533565b905082810360608401526148db8185614533565b979650505050505050565b600080604083850312156148f957600080fd5b61490283614579565b946020939093013593505050565b6000602082016020835280845180835260408501915060408160051b86010192506020860160005b8281101561471357603f19878603018452815180516060875261495e6060880182614533565b9050602082015187820360208901526149778282614533565b6040938401516001600160a01b031698909301979097525094506020938401939190910190600101614938565b6000602082016020835280845180835260408501915060408160051b86010192506020860160005b8281101561471357868503603f19018452815180516001600160a01b03168652602090810151604091870182905290614a0790870182614533565b95505060209384019391909101906001016149cc565b600060208284031215614a2f57600080fd5b5035919050565b606081526000614a496060830186614533565b8281036020840152614a5b8186614533565b91505060018060a01b0383166040830152949350505050565b6001600160a01b038916815261010060208201819052600090614a999083018a614533565b8281036040840152614aab818a614533565b90508281036060840152614abf8189614533565b90508281036080840152614ad38188614533565b905082810360a0840152614ae78187614533565b90508460c084015282810360e0840152614b018185614533565b9b9a5050505050505050505050565b60008060408385031215614b2357600080fd5b82356001600160401b03811115614b3957600080fd5b614b45858286016143f1565b92505060208301356001600160401b038111156145cc57600080fd5b6000602082016020835280845180835260408501915060408160051b86010192506020860160005b8281101561471357603f19878603018452614ba5858351614533565b94506020938401939190910190600101614b89565b60008251614bcc81846020870161450f565b9190910192915050565b600181811c90821680614bea57607f821691505b602082108103611eed57634e487b7160e01b600052602260045260246000fd5b601f8211156113f357806000526020600020601f840160051c81016020851015614c315750805b601f840160051c820191505b81811015614c515760008155600101614c3d565b5050505050565b81516001600160401b03811115614c7157614c716143db565b614c8581614c7f8454614bd6565b84614c0a565b6020601f821160018114614cbc5760008315614ca15750848201515b600184901b600019600386901b1c198216175b855550614c51565b600084815260208120601f198516915b82811015614cec5787850151825560209485019460019092019101614ccc565b5084821015614d0a5786840151600019600387901b60f8161c191681555b50505050600190811b01905550565b818103614d24575050565b614d2e8254614bd6565b6001600160401b03811115614d4557614d456143db565b614d5381614c7f8454614bd6565b6000601f821160018114614d855760008315614ca1575081850154600184901b600019600386901b1c19821617614cb4565b600085815260209020601f19841690600086815260209020845b83811015614dbf5782860154825560019586019590910190602001614d9f565b5085831015614ddd5781850154600019600388901b60f8161c191681555b5050505050600190811b01905550565b634e487b7160e01b600052601160045260246000fd5b600060018201614e1557614e15614ded565b5060010190565b8181038181111561425d5761425d614ded565b604081526000614e426040830185614533565b8281036020840152614e548185614533565b95945050505050565b8082018082111561425d5761425d614ded565b60008154614e7d81614bd6565b600182168015614e945760018114614ea957614ed9565b60ff1983168652811515820286019350614ed9565b84600052602060002060005b83811015614ed157815488820152600190910190602001614eb5565b505081860193505b50505092915050565b60006145728284614e70565b7f476f7420626c6f6f6420616e642072656c656173656420424b5320746f20000081526000614572601e830184614e70565b7f446f6e6174656420426c6f6f6420616e6420676f7420424b532066726f6d200081526000614572601f830184614e70565b6c023b7ba10313637b7b210313c9609d1b81526000614572600d830184614e70565b6602432b63832b2160cd1b815260006145726007830184614e70565b634e487b7160e01b600052603260045260246000fd5b808202811582820484141761425d5761425d614ded565b6a02bb4ba34223930bbb2b2160ad1b815260008251614fe381600b85016020870161450f565b6f206574682053756365737366756c6c7960801b600b939091019283015250601b01919050565b6f021b430b733b2b2103730b6b2903a37960851b81526000825161503581601085016020870161450f565b6b2053756365737366756c6c7960a01b6010939091019283015250601c01919050565b74021b430b733b2b210213637b7b22a3cb832903a379605d1b81526000825161508881601585016020870161450f565b6b2053756365737366756c6c7960a01b6015939091019283015250602101919050565b6e021b430b733b2b2103237b1103a379608d1b8152600082516150d581600f85016020870161450f565b6b2053756365737366756c6c7960a01b600f939091019283015250601b01919050565b71021b430b733b2b21033b2b73232b9103a37960751b81526000825161512581601285016020870161450f565b6b2053756365737366756c6c7960a01b6012939091019283015250601e01919050565b72021b430b733b2b21020b2323932b9b9903a379606d1b81526000825161517681601385016020870161450f565b6b2053756365737366756c6c7960a01b6013939091019283015250601f01919050565b6b02a3930b739b332b93932b2160a51b8152600083516151c081600c85016020880161450f565b670102125a9903a37960c51b600c91840191820152614e546014820185614e70565b6802932b1b2b4bb32b2160bd1b81526000835161520681600985016020880161450f565b690102125a990233937b6960b51b600991840191820152614e546013820185614e70565b7202cb7bab9102237b730ba34b7b7103bb4ba341606d1b81526000825161525881601385016020870161450f565b6a2069732070656e64696e6760a81b6013939091019283015250601e01919050565b634e487b7160e01b600052603160045260246000fdfe55706461746564206d65646963616c207265706f72742073756365737366756c6c79a26469706673582212203c782ccb91034f3cff83ec982e5be0f1798015648ae2c442d69279f67c28333364736f6c634300081b0033",
  "linkReferences": {},
  "deployedLinkReferences": {}
}