{
  "_format": "hh-sol-artifact-1",
  "contractName": "BLOODBANK",
  "sourceName": "contracts/BloodBank.sol",
  "abi": [
    {
      "inputs": [],
      "stateMutability": "nonpayable",
      "type": "constructor"
    },
    {
      "anonymous": false,
      "inputs": [
        {
          "indexed": false,
          "internalType": "string",
          "name": "requestId",
          "type": "string"
        },
        {
          "indexed": false,
          "internalType": "string",
          "name": "comment",
          "type": "string"
        }
      ],
      "name": "AddComment",
      "type": "event"
    },
    {
      "anonymous": false,
      "inputs": [
        {
          "indexed": false,
          "internalType": "string",
          "name": "name",
          "type": "string"
        },
        {
          "indexed": false,
          "internalType": "string",
          "name": "bloodType",
          "type": "string"
        }
      ],
      "name": "CreateProfile",
      "type": "event"
    },
    {
      "anonymous": false,
      "inputs": [
        {
          "indexed": false,
          "internalType": "string",
          "name": "timestamp",
          "type": "string"
        },
        {
          "indexed": false,
          "internalType": "string",
          "name": "details",
          "type": "string"
        }
      ],
      "name": "CreateRequestEvent",
      "type": "event"
    },
    {
      "inputs": [
        {
          "internalType": "string",
          "name": "_requestID",
          "type": "string"
        },
        {
          "internalType": "string",
          "name": "_details",
          "type": "string"
        },
        {
          "internalType": "string",
          "name": "_image",
          "type": "string"
        }
      ],
      "name": "CreateRequest",
      "outputs": [],
      "stateMutability": "nonpayable",
      "type": "function"
    },
    {
      "inputs": [
        {
          "internalType": "string",
          "name": "_name",
          "type": "string"
        },
        {
          "internalType": "string",
          "name": "_bloodType",
          "type": "string"
        },
        {
          "internalType": "string",
          "name": "_dob",
          "type": "string"
        },
        {
          "internalType": "string",
          "name": "_gender",
          "type": "string"
        },
        {
          "internalType": "string",
          "name": "_MR",
          "type": "string"
        },
        {
          "internalType": "uint256",
          "name": "_EC",
          "type": "uint256"
        },
        {
          "internalType": "string",
          "name": "_adr",
          "type": "string"
        }
      ],
      "name": "EditMyProfile",
      "outputs": [],
      "stateMutability": "nonpayable",
      "type": "function"
    },
    {
      "inputs": [
        {
          "internalType": "string",
          "name": "_name",
          "type": "string"
        },
        {
          "internalType": "string",
          "name": "_bloodType",
          "type": "string"
        },
        {
          "internalType": "string",
          "name": "_dob",
          "type": "string"
        },
        {
          "internalType": "string",
          "name": "_gender",
          "type": "string"
        },
        {
          "internalType": "string",
          "name": "_MR",
          "type": "string"
        },
        {
          "internalType": "uint256",
          "name": "_EC",
          "type": "uint256"
        },
        {
          "internalType": "string",
          "name": "_addr",
          "type": "string"
        }
      ],
      "name": "LoginUser",
      "outputs": [],
      "stateMutability": "nonpayable",
      "type": "function"
    },
    {
      "inputs": [
        {
          "internalType": "address",
          "name": "",
          "type": "address"
        },
        {
          "internalType": "uint256",
          "name": "",
          "type": "uint256"
        }
      ],
      "name": "activities",
      "outputs": [
        {
          "internalType": "string",
          "name": "",
          "type": "string"
        }
      ],
      "stateMutability": "view",
      "type": "function"
    },
    {
      "inputs": [
        {
          "internalType": "address",
          "name": "",
          "type": "address"
        }
      ],
      "name": "activitiesCount",
      "outputs": [
        {
          "internalType": "uint256",
          "name": "",
          "type": "uint256"
        }
      ],
      "stateMutability": "view",
      "type": "function"
    },
    {
      "inputs": [
        {
          "internalType": "string",
          "name": "_requestId",
          "type": "string"
        },
        {
          "internalType": "string",
          "name": "_comment",
          "type": "string"
        }
      ],
      "name": "addComment",
      "outputs": [],
      "stateMutability": "nonpayable",
      "type": "function"
    },
    {
      "inputs": [
        {
          "internalType": "string",
          "name": "",
          "type": "string"
        }
      ],
      "name": "allRequests",
      "outputs": [
        {
          "internalType": "address",
          "name": "requestor",
          "type": "address"
        },
        {
          "internalType": "string",
          "name": "requestId",
          "type": "string"
        },
        {
          "internalType": "string",
          "name": "details",
          "type": "string"
        },
        {
          "internalType": "string",
          "name": "image",
          "type": "string"
        }
      ],
      "stateMutability": "view",
      "type": "function"
    },
    {
      "inputs": [
        {
          "internalType": "address",
          "name": "",
          "type": "address"
        }
      ],
      "name": "balances",
      "outputs": [
        {
          "internalType": "uint256",
          "name": "",
          "type": "uint256"
        }
      ],
      "stateMutability": "view",
      "type": "function"
    },
    {
      "inputs": [],
      "name": "buyBks",
      "outputs": [],
      "stateMutability": "payable",
      "type": "function"
    },
    {
      "inputs": [
        {
          "internalType": "string",
          "name": "_reqId",
          "type": "string"
        }
      ],
      "name": "deleteRequest",
      "outputs": [],
      "stateMutability": "nonpayable",
      "type": "function"
    },
    {
      "inputs": [],
      "name": "getAllMyRequests",
      "outputs": [
        {
          "components": [
            {
              "internalType": "address",
              "name": "requestor",
              "type": "address"
            },
            {
              "internalType": "string",
              "name": "requestId",
              "type": "string"
            },
            {
              "internalType": "string",
              "name": "details",
              "type": "string"
            },
            {
              "internalType": "string",
              "name": "image",
              "type": "string"
            },
            {
              "components": [
                {
                  "internalType": "address",
                  "name": "commentator",
                  "type": "address"
                },
                {
                  "internalType": "string",
                  "name": "text",
                  "type": "string"
                }
              ],
              "internalType": "struct BLOODBANK.Comment[]",
              "name": "comments",
              "type": "tuple[]"
            }
          ],
          "internalType": "struct BLOODBANK.Requests[]",
          "name": "",
          "type": "tuple[]"
        }
      ],
      "stateMutability": "view",
      "type": "function"
    },
    {
      "inputs": [],
      "name": "getAllNotification",
      "outputs": [
        {
          "internalType": "string[]",
          "name": "",
          "type": "string[]"
        }
      ],
      "stateMutability": "view",
      "type": "function"
    },
    {
      "inputs": [],
      "name": "getAllPendingRequests",
      "outputs": [
        {
          "components": [
            {
              "internalType": "string",
              "name": "text",
              "type": "string"
            },
            {
              "internalType": "string",
              "name": "requestId",
              "type": "string"
            },
            {
              "internalType": "address",
              "name": "commentatorId",
              "type": "address"
            }
          ],
          "internalType": "struct BLOODBANK.Donation[]",
          "name": "",
          "type": "tuple[]"
        }
      ],
      "stateMutability": "view",
      "type": "function"
    },
    {
      "inputs": [],
      "name": "getAllRequests",
      "outputs": [
        {
          "components": [
            {
              "internalType": "address",
              "name": "requestor",
              "type": "address"
            },
            {
              "internalType": "string",
              "name": "requestId",
              "type": "string"
            },
            {
              "internalType": "string",
              "name": "details",
              "type": "string"
            },
            {
              "internalType": "string",
              "name": "image",
              "type": "string"
            },
            {
              "components": [
                {
                  "internalType": "address",
                  "name": "commentator",
                  "type": "address"
                },
                {
                  "internalType": "string",
                  "name": "text",
                  "type": "string"
                }
              ],
              "internalType": "struct BLOODBANK.Comment[]",
              "name": "comments",
              "type": "tuple[]"
            }
          ],
          "internalType": "struct BLOODBANK.Requests[]",
          "name": "",
          "type": "tuple[]"
        }
      ],
      "stateMutability": "view",
      "type": "function"
    },
    {
      "inputs": [
        {
          "internalType": "string",
          "name": "_id",
          "type": "string"
        }
      ],
      "name": "getComments",
      "outputs": [
        {
          "components": [
            {
              "internalType": "address",
              "name": "commentator",
              "type": "address"
            },
            {
              "internalType": "string",
              "name": "text",
              "type": "string"
            }
          ],
          "internalType": "struct BLOODBANK.Comment[]",
          "name": "",
          "type": "tuple[]"
        }
      ],
      "stateMutability": "view",
      "type": "function"
    },
    {
      "inputs": [
        {
          "internalType": "address",
          "name": "_commentatorId",
          "type": "address"
        },
        {
          "internalType": "string",
          "name": "_requestId",
          "type": "string"
        }
      ],
      "name": "initiate",
      "outputs": [],
      "stateMutability": "nonpayable",
      "type": "function"
    },
    {
      "inputs": [
        {
          "internalType": "address",
          "name": "",
          "type": "address"
        }
      ],
      "name": "myNotificationCount",
      "outputs": [
        {
          "internalType": "uint256",
          "name": "",
          "type": "uint256"
        }
      ],
      "stateMutability": "view",
      "type": "function"
    },
    {
      "inputs": [
        {
          "internalType": "address",
          "name": "",
          "type": "address"
        },
        {
          "internalType": "uint256",
          "name": "",
          "type": "uint256"
        }
      ],
      "name": "myPending",
      "outputs": [
        {
          "internalType": "string",
          "name": "text",
          "type": "string"
        },
        {
          "internalType": "string",
          "name": "requestId",
          "type": "string"
        },
        {
          "internalType": "address",
          "name": "commentatorId",
          "type": "address"
        }
      ],
      "stateMutability": "view",
      "type": "function"
    },
    {
      "inputs": [
        {
          "internalType": "address",
          "name": "",
          "type": "address"
        }
      ],
      "name": "myPendingCount",
      "outputs": [
        {
          "internalType": "uint256",
          "name": "",
          "type": "uint256"
        }
      ],
      "stateMutability": "view",
      "type": "function"
    },
    {
      "inputs": [
        {
          "internalType": "address",
          "name": "",
          "type": "address"
        },
        {
          "internalType": "uint256",
          "name": "",
          "type": "uint256"
        }
      ],
      "name": "myRequests",
      "outputs": [
        {
          "internalType": "address",
          "name": "requestor",
          "type": "address"
        },
        {
          "internalType": "string",
          "name": "requestId",
          "type": "string"
        },
        {
          "internalType": "string",
          "name": "details",
          "type": "string"
        },
        {
          "internalType": "string",
          "name": "image",
          "type": "string"
        }
      ],
      "stateMutability": "view",
      "type": "function"
    },
    {
      "inputs": [
        {
          "internalType": "address",
          "name": "",
          "type": "address"
        }
      ],
      "name": "myRequestsCount",
      "outputs": [
        {
          "internalType": "uint256",
          "name": "",
          "type": "uint256"
        }
      ],
      "stateMutability": "view",
      "type": "function"
    },
    {
      "inputs": [],
      "name": "name",
      "outputs": [
        {
          "internalType": "string",
          "name": "",
          "type": "string"
        }
      ],
      "stateMutability": "view",
      "type": "function"
    },
    {
      "inputs": [
        {
          "internalType": "address",
          "name": "",
          "type": "address"
        },
        {
          "internalType": "uint256",
          "name": "",
          "type": "uint256"
        }
      ],
      "name": "notifications",
      "outputs": [
        {
          "internalType": "string",
          "name": "",
          "type": "string"
        }
      ],
      "stateMutability": "view",
      "type": "function"
    },
    {
      "inputs": [],
      "name": "owner",
      "outputs": [
        {
          "internalType": "address",
          "name": "",
          "type": "address"
        }
      ],
      "stateMutability": "view",
      "type": "function"
    },
    {
      "inputs": [
        {
          "internalType": "address",
          "name": "",
          "type": "address"
        }
      ],
      "name": "profile",
      "outputs": [
        {
          "internalType": "address",
          "name": "id",
          "type": "address"
        },
        {
          "internalType": "string",
          "name": "name",
          "type": "string"
        },
        {
          "internalType": "string",
          "name": "bloodType",
          "type": "string"
        },
        {
          "internalType": "string",
          "name": "dateOfBirth",
          "type": "string"
        },
        {
          "internalType": "string",
          "name": "gender",
          "type": "string"
        },
        {
          "internalType": "string",
          "name": "medicalReport",
          "type": "string"
        },
        {
          "internalType": "uint256",
          "name": "emergencyContact",
          "type": "uint256"
        },
        {
          "internalType": "string",
          "name": "myAddress",
          "type": "string"
        }
      ],
      "stateMutability": "view",
      "type": "function"
    },
    {
      "inputs": [
        {
          "internalType": "address",
          "name": "_donor",
          "type": "address"
        },
        {
          "internalType": "string",
          "name": "_reqId",
          "type": "string"
        }
      ],
      "name": "releaseBks",
      "outputs": [],
      "stateMutability": "nonpayable",
      "type": "function"
    },
    {
      "inputs": [
        {
          "internalType": "string",
          "name": "_requestId",
          "type": "string"
        }
      ],
      "name": "removeComment",
      "outputs": [],
      "stateMutability": "nonpayable",
      "type": "function"
    },
    {
      "inputs": [
        {
          "internalType": "uint256",
          "name": "",
          "type": "uint256"
        }
      ],
      "name": "requestIds",
      "outputs": [
        {
          "internalType": "string",
          "name": "",
          "type": "string"
        }
      ],
      "stateMutability": "view",
      "type": "function"
    },
    {
      "inputs": [],
      "name": "tokenName",
      "outputs": [
        {
          "internalType": "string",
          "name": "",
          "type": "string"
        }
      ],
      "stateMutability": "view",
      "type": "function"
    },
    {
      "inputs": [
        {
          "internalType": "address",
          "name": "_id",
          "type": "address"
        },
        {
          "internalType": "uint256",
          "name": "_amount",
          "type": "uint256"
        }
      ],
      "name": "transferBKS",
      "outputs": [],
      "stateMutability": "nonpayable",
      "type": "function"
    },
    {
      "inputs": [],
      "name": "withdraw",
      "outputs": [],
      "stateMutability": "payable",
      "type": "function"
    }
  ],
  "bytecode": "0x60c06040526003608090815262424b5360e81b60a052600290610022908261012f565b50620f424060035534801561003657600080fd5b506040805180820190915260078152661108109b1bdbd960ca1b6020820152600090610062908261012f565b50600180546001600160a01b03191633908117909155600354600091825260096020526040909120556101ed565b634e487b7160e01b600052604160045260246000fd5b600181811c908216806100ba57607f821691505b6020821081036100da57634e487b7160e01b600052602260045260246000fd5b50919050565b601f82111561012a57806000526020600020601f840160051c810160208510156101075750805b601f840160051c820191505b818110156101275760008155600101610113565b50505b505050565b81516001600160401b0381111561014857610148610090565b61015c8161015684546100a6565b846100e0565b6020601f82116001811461019057600083156101785750848201515b600019600385901b1c1916600184901b178455610127565b600084815260208120601f198516915b828110156101c057878501518255602094850194600190920191016101a0565b50848210156101de5786840151600019600387901b60f8161c191681555b50505050600190811b01905550565b615241806101fc6000396000f3fe6080604052600436106101d85760003560e01c80637ff2a69811610102578063a8fa57f511610095578063cf0e4b1711610064578063cf0e4b17146105ad578063d2d36e84146105cf578063dbdd0203146105ef578063fb1a002a1461061c57600080fd5b8063a8fa57f514610545578063ae5ff90514610565578063b3074d0214610585578063c779f4951461058d57600080fd5b806398897920116100d157806398897920146104b15780639dd9d0fd146104d1578063a63a2ec114610505578063a8edc3af1461052557600080fd5b80637ff2a698146103fd5780638796ba8c1461042a5780638da5cb5b1461044a5780638e0c8ab51461048257600080fd5b80633ccfd60b1161017a5780636bd05f35116101495780636bd05f35146103795780636c02a9311461039b5780636f59330d146103b057806370c63fcc146103d057600080fd5b80633ccfd60b146102f4578063513c0825146102fc57806365d0bddd1461032c578063699709461461034c57600080fd5b8063105a02e8116101b6578063105a02e81461024a5780631b3cd9661461026c57806321b197571461028c57806327e235e3146102c757600080fd5b8063066db65f146101dd57806306fdde03146101ff578063091f84221461022a575b600080fd5b3480156101e957600080fd5b506101fd6101f83660046143d7565b610631565b005b34801561020b57600080fd5b50610214610952565b60405161022191906144b8565b60405180910390f35b34801561023657600080fd5b506101fd6102453660046144ee565b6109e0565b34801561025657600080fd5b5061025f6113f8565b604051610221919061453b565b34801561027857600080fd5b506101fd610287366004614678565b6117fa565b34801561029857600080fd5b506102b96102a7366004614793565b60076020526000908152604090205481565b604051908152602001610221565b3480156102d357600080fd5b506102b96102e2366004614793565b60096020526000908152604090205481565b6101fd611932565b34801561030857600080fd5b5061031c6103173660046147ae565b611a6b565b60405161022194939291906147ea565b34801561033857600080fd5b5061021461034736600461483f565b611c41565b34801561035857600080fd5b506102b9610367366004614793565b600d6020526000908152604090205481565b34801561038557600080fd5b5061038e611c65565b6040516102219190614869565b3480156103a757600080fd5b50610214611e94565b3480156103bc57600080fd5b506101fd6103cb366004614678565b611ea1565b3480156103dc57600080fd5b506103f06103eb3660046147ae565b612337565b60405161022191906148fd565b34801561040957600080fd5b506102b9610418366004614793565b600f6020526000908152604090205481565b34801561043657600080fd5b50610214610445366004614976565b61245e565b34801561045657600080fd5b5060015461046a906001600160a01b031681565b6040516001600160a01b039091168152602001610221565b34801561048e57600080fd5b506104a261049d36600461483f565b612489565b6040516102219392919061498f565b3480156104bd57600080fd5b506102146104cc36600461483f565b6125cf565b3480156104dd57600080fd5b506104f16104ec366004614793565b6125f3565b6040516102219897969594939291906149cd565b34801561051157600080fd5b506101fd61052036600461483f565b61296e565b34801561053157600080fd5b506101fd6105403660046147ae565b612bb0565b34801561055157600080fd5b506101fd6105603660046144ee565b612c61565b34801561057157600080fd5b506101fd610580366004614a69565b613186565b6101fd613290565b34801561059957600080fd5b506101fd6105a83660046147ae565b6135ae565b3480156105b957600080fd5b506105c26137e2565b6040516102219190614aba565b3480156105db57600080fd5b5061031c6105ea36600461483f565b613925565b3480156105fb57600080fd5b506102b961060a366004614793565b600b6020526000908152604090205481565b34801561062857600080fd5b5061025f61395c565b336000908152600960205260409020546064111561068d5760405162461bcd60e51b81526020600482015260146024820152733737ba1032b737bab3b4102125a9903a37b5b2b760611b60448201526064015b60405180910390fd5b600060058460405161069f9190614b13565b90815260405190819003602001902080546001600160a01b031916331781559050600181016106ce8582614bb1565b50600281016106dd8482614bb1565b50600381016106ec8382614bb1565b50806005856040516106fe9190614b13565b908152604051908190036020019020815481546001600160a01b0319166001600160a01b0390911617815560018082019061073b90840182614c72565b5060028181019061074e90840182614c72565b5060038181019061076190840182614c72565b506004828101805461077692840191906141dd565b5050600680546001810182556000919091527ff652222313e28459528d920b65115c16c04f3efc82aaedc97be59f3f377c0d3f0190506107b68582614bb1565b503360009081526007602052604081208054916107d283614d5c565b9091555050336000908152600860209081526040808320600783528184205484529091529020815481546001600160a01b0319166001600160a01b0391909116178155819060018082019061082990840182614c72565b5060028181019061083c90840182614c72565b5060038181019061084f90840182614c72565b506004828101805461086492840191906141dd565b5050336000908152600960205260408120805460649350909190610889908490614d75565b9091555050336000908152600b602052604081208054916108a983614d5c565b90915550506040517f43726561746564206120726571756573742053756365737366756c6c790000006020820152603d0160408051601f19818403018152918152336000908152600a6020908152828220600b8252838320548352905220906109129082614bb1565b507f7e54fbed74ec23d72999b7455780e98e634868f26c4de891d18c09bdb5f8c4578484604051610944929190614d88565b60405180910390a150505050565b6000805461095f90614b2f565b80601f016020809104026020016040519081016040528092919081815260200182805461098b90614b2f565b80156109d85780601f106109ad576101008083540402835291602001916109d8565b820191906000526020600020905b8154815290600101906020018083116109bb57829003601f168201915b505050505081565b60006005826040516109f29190614b13565b90815260408051918290036020908101832060a0840190925281546001600160a01b0316835260018201805491840191610a2b90614b2f565b80601f0160208091040260200160405190810160405280929190818152602001828054610a5790614b2f565b8015610aa45780601f10610a7957610100808354040283529160200191610aa4565b820191906000526020600020905b815481529060010190602001808311610a8757829003601f168201915b50505050508152602001600282018054610abd90614b2f565b80601f0160208091040260200160405190810160405280929190818152602001828054610ae990614b2f565b8015610b365780601f10610b0b57610100808354040283529160200191610b36565b820191906000526020600020905b815481529060010190602001808311610b1957829003601f168201915b50505050508152602001600382018054610b4f90614b2f565b80601f0160208091040260200160405190810160405280929190818152602001828054610b7b90614b2f565b8015610bc85780601f10610b9d57610100808354040283529160200191610bc8565b820191906000526020600020905b815481529060010190602001808311610bab57829003601f168201915b5050505050815260200160048201805480602002602001604051908101604052809291908181526020016000905b82821015610ccf576000848152602090819020604080518082019091526002850290910180546001600160a01b031682526001810180549293919291840191610c3e90614b2f565b80601f0160208091040260200160405190810160405280929190818152602001828054610c6a90614b2f565b8015610cb75780601f10610c8c57610100808354040283529160200191610cb7565b820191906000526020600020905b815481529060010190602001808311610c9a57829003601f168201915b50505050508152505081526020019060010190610bf6565b50505050815250509050806020015151600003610d225760405162461bcd60e51b815260206004820152601160248201527072657120646f65736e742065786973747360781b6044820152606401610684565b80516001600160a01b03163314610d7b5760405162461bcd60e51b815260206004820152601a60248201527f6f6e6c7920726571756573746f722063616e2072656c656173650000000000006044820152606401610684565b6001546001600160a01b03166000908152600960205260408120805460039290610da6908490614db6565b90915550506001600160a01b0383166000908152600960205260408120805460619290610dd4908490614db6565b90915550600190505b336000908152600f60205260409020548111610f5c578251602080850191909120336000908152600e8352604080822085835290935282902091519091610e2991600190910190614e3b565b604051809103902003610f1857336000908152600e60209081526040808320600f8352818420548452909152808220838352912080610e688382614c72565b50600181810190610e7b90840182614c72565b50600291820154910180546001600160a01b0319166001600160a01b03909216919091179055336000908152600e60209081526040808320600f8352818420548452909152812090610ecd8282614262565b610edb600183016000614262565b5060020180546001600160a01b0319169055336000908152600f60205260408120805460019290610f0d908490614d75565b90915550610f5c9050565b610f4a6040518060400160405280601181526020017014995c5d595cdd081b9bdd08199bdd5b99607a1b815250613cfb565b80610f5481614d5c565b915050610ddd565b5060015b6001600160a01b0384166000908152600f602052604090205481116111015782516020808501919091206001600160a01b0386166000908152600e8352604080822085835290935282902091519091610fbe91600190910190614e3b565b6040518091039020036110bd576001600160a01b0384166000908152600e60209081526040808320600f83528184205484529091528082208383529120806110068382614c72565b5060018181019061101990840182614c72565b50600291820154910180546001600160a01b0319166001600160a01b0392831617905584166000908152600e60209081526040808320600f83528184205484529091528120906110698282614262565b611077600183016000614262565b5060020180546001600160a01b03191690556001600160a01b0384166000908152600f602052604081208054600192906110b2908490614d75565b909155506111019050565b6110ef6040518060400160405280601181526020017014995c5d595cdd081b9bdd08199bdd5b99607a1b815250613cfb565b806110f981614d5c565b915050610f60565b50336000908152600b6020526040812080549161111d83614d5c565b90915550506001600160a01b038316600090815260046020908152604091829020915161114e926001019101614e47565b60408051601f19818403018152918152336000908152600a6020908152828220600b8252838320548352905220906111869082614bb1565b506001600160a01b0383166000908152600b602052604081208054916111ab83614d5c565b90915550503360009081526004602090815260409182902091516111d3926001019101614e79565b60408051601f198184030181529181526001600160a01b0385166000908152600a6020908152828220600b8252838320548352905220906112149082614bb1565b506001546001600160a01b03166000908152600b6020526040812080549161123b83614d5c565b9091555050604080517f4761696e65642033424b532066726f6d207472616e73616374696f6e7320666f602082015261039160f51b918101919091526bffffffffffffffffffffffff19606085901b16604282015260560160408051601f198184030181529181526001546001600160a01b03166000908152600a6020908152828220600b8252838320548352905220906112d69082614bb1565b50336000908152600d602052604081208054916112f283614d5c565b90915550506001600160a01b0383166000908152600460209081526040918290209151611323926001019101614eab565b60408051601f19818403018152918152336000908152600c6020908152828220600d82528383205483529052209061135b9082614bb1565b506001600160a01b0383166000908152600d6020526040812080549161138083614d5c565b90915550503360009081526004602090815260409182902091516113a8926001019101614ecd565b60408051601f198184030181529181526001600160a01b0385166000908152600c6020908152828220600d8252838320548352905220906113e99082614bb1565b506113f382613d3e565b505050565b336000908152600760205260409020546060906114575760405162461bcd60e51b815260206004820152601d60248201527f596f752068617665206e6f2052657175657374732074696c6c206e6f770000006044820152606401610684565b3360009081526007602052604081205490816001600160401b0381111561148057611480614334565b6040519080825280602002602001820160405280156114b957816020015b6114a661429c565b81526020019060019003908161149e5790505b50905060005b828110156117f357336000908152600860205260408120906114e2836001614db6565b81526020808201929092526040908101600020815160a0810190925280546001600160a01b03168252600181018054929391929184019161152290614b2f565b80601f016020809104026020016040519081016040528092919081815260200182805461154e90614b2f565b801561159b5780601f106115705761010080835404028352916020019161159b565b820191906000526020600020905b81548152906001019060200180831161157e57829003601f168201915b505050505081526020016002820180546115b490614b2f565b80601f01602080910402602001604051908101604052809291908181526020018280546115e090614b2f565b801561162d5780601f106116025761010080835404028352916020019161162d565b820191906000526020600020905b81548152906001019060200180831161161057829003601f168201915b5050505050815260200160038201805461164690614b2f565b80601f016020809104026020016040519081016040528092919081815260200182805461167290614b2f565b80156116bf5780601f10611694576101008083540402835291602001916116bf565b820191906000526020600020905b8154815290600101906020018083116116a257829003601f168201915b5050505050815260200160048201805480602002602001604051908101604052809291908181526020016000905b828210156117c6576000848152602090819020604080518082019091526002850290910180546001600160a01b03168252600181018054929391929184019161173590614b2f565b80601f016020809104026020016040519081016040528092919081815260200182805461176190614b2f565b80156117ae5780601f10611783576101008083540402835291602001916117ae565b820191906000526020600020905b81548152906001019060200180831161179157829003601f168201915b505050505081525050815260200190600101906116ed565b50505050815250508282815181106117e0576117e0614ee9565b60209081029190910101526001016114bf565b5092915050565b60408051610100810182523380825260208083018b81528385018b9052606084018a90526080840189905260a0840188905260c0840187905260e0840186905260009283526004909152929020815181546001600160a01b0319166001600160a01b0390911617815591519091829160018201906118789082614bb1565b506040820151600282019061188d9082614bb1565b50606082015160038201906118a29082614bb1565b50608082015160048201906118b79082614bb1565b5060a082015160058201906118cc9082614bb1565b5060c0820151600682015560e082015160078201906118eb9082614bb1565b509050507f46b183c16a39f1e155acd80fd090bc7dd91637962b2310fdb79bdcb2e2000c998888604051611920929190614d88565b60405180910390a15050505050505050565b336000908152600960205260409020546119985760405162461bcd60e51b815260206004820152602160248201527f596f7520646f6e74206861766520616e7920424b5320746f20776974686472616044820152607760f81b6064820152608401610684565b336000908152600960205260408120546119b8906512309ce54000614eff565b604051909150339082156108fc029083906000818181858888f193505050501580156119e8573d6000803e3d6000fd5b50336000908152600960209081526040808320839055600b9091528120805491611a1183614d5c565b9190505550611a1f81614048565b604051602001611a2f9190614f16565b60408051601f19818403018152918152336000908152600a6020908152828220600b825283832054835290522090611a679082614bb1565b5050565b8051602081830181018051600582529282019190930120915280546001820180546001600160a01b039092169291611aa290614b2f565b80601f0160208091040260200160405190810160405280929190818152602001828054611ace90614b2f565b8015611b1b5780601f10611af057610100808354040283529160200191611b1b565b820191906000526020600020905b815481529060010190602001808311611afe57829003601f168201915b505050505090806002018054611b3090614b2f565b80601f0160208091040260200160405190810160405280929190818152602001828054611b5c90614b2f565b8015611ba95780601f10611b7e57610100808354040283529160200191611ba9565b820191906000526020600020905b815481529060010190602001808311611b8c57829003601f168201915b505050505090806003018054611bbe90614b2f565b80601f0160208091040260200160405190810160405280929190818152602001828054611bea90614b2f565b8015611c375780601f10611c0c57610100808354040283529160200191611c37565b820191906000526020600020905b815481529060010190602001808311611c1a57829003601f168201915b5050505050905084565b600a6020908152600092835260408084209091529082529020805461095f90614b2f565b336000908152600f6020526040812054606091906001600160401b03811115611c9057611c90614334565b604051908082528060200260200182016040528015611cdd57816020015b60408051606080820183528082526020820152600091810191909152815260200190600190039081611cae5790505b50905060005b336000908152600f6020526040902054811015611e8e57336000908152600e6020526040812090611d15836001614db6565b8152602001908152602001600020604051806060016040529081600082018054611d3e90614b2f565b80601f0160208091040260200160405190810160405280929190818152602001828054611d6a90614b2f565b8015611db75780601f10611d8c57610100808354040283529160200191611db7565b820191906000526020600020905b815481529060010190602001808311611d9a57829003601f168201915b50505050508152602001600182018054611dd090614b2f565b80601f0160208091040260200160405190810160405280929190818152602001828054611dfc90614b2f565b8015611e495780601f10611e1e57610100808354040283529160200191611e49565b820191906000526020600020905b815481529060010190602001808311611e2c57829003601f168201915b5050509183525050600291909101546001600160a01b03166020909101528251839083908110611e7b57611e7b614ee9565b6020908102919091010152600101611ce3565b50919050565b6002805461095f90614b2f565b336000818152600460205260409020805490916001600160a01b0390911614611f0c5760405162461bcd60e51b815260206004820152601d60248201527f596f7520617265206e6f74207468652070726f66696c65206f776e65720000006044820152606401610684565b875115611f8d5760018101611f218982614bb1565b50336000908152600b60205260408120805491611f3d83614d5c565b919050555087604051602001611f539190614f63565b60408051601f19818403018152918152336000908152600a6020908152828220600b825283832054835290522090611f8b9082614bb1565b505b86511561200e5760028101611fa28882614bb1565b50336000908152600b60205260408120805491611fbe83614d5c565b919050555086604051602001611fd49190614fb1565b60408051601f19818403018152918152336000908152600a6020908152828220600b82528383205483529052209061200c9082614bb1565b505b85511561208f57600381016120238782614bb1565b50336000908152600b6020526040812080549161203f83614d5c565b9190505550856040516020016120559190615004565b60408051601f19818403018152918152336000908152600a6020908152828220600b82528383205483529052209061208d9082614bb1565b505b84511561211057600481016120a48682614bb1565b50336000908152600b602052604081208054916120c083614d5c565b9190505550846040516020016120d69190615051565b60408051601f19818403018152918152336000908152600a6020908152828220600b82528383205483529052209061210e9082614bb1565b505b83511561220757600581016121258582614bb1565b50336000908152600b6020526040812080549161214183614d5c565b91905055506040518060600160405280602281526020016151ea60229139336000908152600a60209081526040808320600b835281842054845290915290209061218b9082614bb1565b50336000908152600d602052604081208054916121a783614d5c565b90915550506040805180820182526016815275155c19185d1959081359591a58d85b0814995c1bdc9d60521b602080830191909152336000908152600c8252838120600d835284822054825290915291909120906122059082614bb1565b505b82156122ac5760068101839055336000908152600b6020526040812080549161222f83614d5c565b909155505060405172021b430b733b2b21021b7b73a30b1ba103a379606d1b6020820152603381018490526b2053756365737366756c6c7960a01b6053820152605f0160408051601f19818403018152918152336000908152600a6020908152828220600b8252838320548352905220906122aa9082614bb1565b505b81511561232d57600781016122c18382614bb1565b50336000908152600b602052604081208054916122dd83614d5c565b9190505550816040516020016122f391906150a1565b60408051601f19818403018152918152336000908152600a6020908152828220600b82528383205483529052209061232b9082614bb1565b505b5050505050505050565b60606005826040516123499190614b13565b9081526020016040518091039020600401805480602002602001604051908101604052809291908181526020016000905b82821015612453576000848152602090819020604080518082019091526002850290910180546001600160a01b0316825260018101805492939192918401916123c290614b2f565b80601f01602080910402602001604051908101604052809291908181526020018280546123ee90614b2f565b801561243b5780601f106124105761010080835404028352916020019161243b565b820191906000526020600020905b81548152906001019060200180831161241e57829003601f168201915b5050505050815250508152602001906001019061237a565b505050509050919050565b6006818154811061246e57600080fd5b90600052602060002001600091509050805461095f90614b2f565b600e6020908152600092835260408084209091529082529020805481906124af90614b2f565b80601f01602080910402602001604051908101604052809291908181526020018280546124db90614b2f565b80156125285780601f106124fd57610100808354040283529160200191612528565b820191906000526020600020905b81548152906001019060200180831161250b57829003601f168201915b50505050509080600101805461253d90614b2f565b80601f016020809104026020016040519081016040528092919081815260200182805461256990614b2f565b80156125b65780601f1061258b576101008083540402835291602001916125b6565b820191906000526020600020905b81548152906001019060200180831161259957829003601f168201915b505050600290930154919250506001600160a01b031683565b600c6020908152600092835260408084209091529082529020805461095f90614b2f565b600460205260009081526040902080546001820180546001600160a01b03909216929161261f90614b2f565b80601f016020809104026020016040519081016040528092919081815260200182805461264b90614b2f565b80156126985780601f1061266d57610100808354040283529160200191612698565b820191906000526020600020905b81548152906001019060200180831161267b57829003601f168201915b5050505050908060020180546126ad90614b2f565b80601f01602080910402602001604051908101604052809291908181526020018280546126d990614b2f565b80156127265780601f106126fb57610100808354040283529160200191612726565b820191906000526020600020905b81548152906001019060200180831161270957829003601f168201915b50505050509080600301805461273b90614b2f565b80601f016020809104026020016040519081016040528092919081815260200182805461276790614b2f565b80156127b45780601f10612789576101008083540402835291602001916127b4565b820191906000526020600020905b81548152906001019060200180831161279757829003601f168201915b5050505050908060040180546127c990614b2f565b80601f01602080910402602001604051908101604052809291908181526020018280546127f590614b2f565b80156128425780601f1061281757610100808354040283529160200191612842565b820191906000526020600020905b81548152906001019060200180831161282557829003601f168201915b50505050509080600501805461285790614b2f565b80601f016020809104026020016040519081016040528092919081815260200182805461288390614b2f565b80156128d05780601f106128a5576101008083540402835291602001916128d0565b820191906000526020600020905b8154815290600101906020018083116128b357829003601f168201915b5050505050908060060154908060070180546128eb90614b2f565b80601f016020809104026020016040519081016040528092919081815260200182805461291790614b2f565b80156129645780601f1061293957610100808354040283529160200191612964565b820191906000526020600020905b81548152906001019060200180831161294757829003601f168201915b5050505050905088565b336000908152600960205260409020546129ca5760405162461bcd60e51b815260206004820152601860248201527f596f7520646f6e74206861766520616e7920746f6b656e7300000000000000006044820152606401610684565b33600090815260096020526040902054811115612a395760405162461bcd60e51b815260206004820152602760248201527f596f7520646f6e74206861766520656e6f75676820746f6b656e7320746f2073604482015266656e6420424b5360c81b6064820152608401610684565b6001600160a01b03821660009081526009602052604081208054839290612a61908490614db6565b90915550503360009081526009602052604081208054839290612a85908490614d75565b9091555050336000908152600b60205260408120805491612aa583614d5c565b9190505550612ab381614048565b6001600160a01b0383166000908152600460209081526040918290209151612ae0939260010191016150f2565b60408051601f19818403018152918152336000908152600a6020908152828220600b825283832054835290522090612b189082614bb1565b506001600160a01b0382166000908152600b60205260408120805491612b3d83614d5c565b9190505550612b4b81614048565b336000908152600460209081526040918290209151612b6f9392600101910161513b565b60408051601f198184030181529181526001600160a01b0384166000908152600a6020908152828220600b8252838320548352905220906113f39082614bb1565b336001600160a01b0316600582604051612bca9190614b13565b908152604051908190036020019020546001600160a01b031614612c305760405162461bcd60e51b815260206004820181905260248201527f4f6e6c7920526571756573746f722063616e2064656c657465526571756573746044820152606401610684565b612c3981613d3e565b336000908152600960205260408120805460619290612c59908490614db6565b909155505050565b6001600160a01b03821660009081526004602052604081206001018054612c8790614b2f565b80601f0160208091040260200160405190810160405280929190818152602001828054612cb390614b2f565b8015612d005780601f10612cd557610100808354040283529160200191612d00565b820191906000526020600020905b815481529060010190602001808311612ce357829003601f168201915b505050505090506000600583604051612d199190614b13565b90815260408051918290036020908101832060a0840190925281546001600160a01b0316835260018201805491840191612d5290614b2f565b80601f0160208091040260200160405190810160405280929190818152602001828054612d7e90614b2f565b8015612dcb5780601f10612da057610100808354040283529160200191612dcb565b820191906000526020600020905b815481529060010190602001808311612dae57829003601f168201915b50505050508152602001600282018054612de490614b2f565b80601f0160208091040260200160405190810160405280929190818152602001828054612e1090614b2f565b8015612e5d5780601f10612e3257610100808354040283529160200191612e5d565b820191906000526020600020905b815481529060010190602001808311612e4057829003601f168201915b50505050508152602001600382018054612e7690614b2f565b80601f0160208091040260200160405190810160405280929190818152602001828054612ea290614b2f565b8015612eef5780601f10612ec457610100808354040283529160200191612eef565b820191906000526020600020905b815481529060010190602001808311612ed257829003601f168201915b5050505050815260200160048201805480602002602001604051908101604052809291908181526020016000905b82821015612ff6576000848152602090819020604080518082019091526002850290910180546001600160a01b031682526001810180549293919291840191612f6590614b2f565b80601f0160208091040260200160405190810160405280929190818152602001828054612f9190614b2f565b8015612fde5780601f10612fb357610100808354040283529160200191612fde565b820191906000526020600020905b815481529060010190602001808311612fc157829003601f168201915b50505050508152505081526020019060010190612f1d565b50505091525050604080516060808201835280825260208201526000918101919091529091508260405160200161302d9190615183565b60408051601f19818403018152918152908252602083810151838201526001600160a01b03871683830152336000908152600f90915290812080549161307283614d5c565b9091555050336000908152600e60209081526040808320600f83528184205484529091529020815182919081906130a99082614bb1565b50602082015160018201906130be9082614bb1565b5060409182015160029190910180546001600160a01b0319166001600160a01b0392831617905586166000908152600f60205290812080549161310083614d5c565b90915550506001600160a01b0385166000908152600e60209081526040808320600f83528184205484529091529020815182919081906131409082614bb1565b50602082015160018201906131559082614bb1565b5060409190910151600290910180546001600160a01b0319166001600160a01b039092169190911790555050505050565b6005826040516131969190614b13565b908152602001604051809103902060010180546131b290614b2f565b90506000036132035760405162461bcd60e51b815260206004820152601a60248201527f546865205265717565737420446f65736e2774204578697374730000000000006044820152606401610684565b60006005836040516132159190614b13565b908152604080516020928190038301812081830190925233815282810185815260048301805460018082018355600092835295909120835160029092020180546001600160a01b0319166001600160a01b03909216919091178155905192945090928392908201906132879082614bb1565b50505050505050565b6001546001600160a01b031633036132e25760405162461bcd60e51b81526020600482015260156024820152744f776e65722043616e742062757920746f6b656e7360581b6044820152606401610684565b3466038d7ea4c6800014806132fd57503466071afd498d0000145b6133625760405162461bcd60e51b815260206004820152603060248201527f596f752073686f756c642070617920302e30303120657468206f7220302e303060448201526f322065746820746f2062757920424b5360801b6064820152608401610684565b3466071afd498d00000361348857336000908152600960205260408120805460649290613390908490614db6565b9091555050336000908152600b602052604081208054916133b083614d5c565b9091555050604080518082018252601981527f426f7567687420313030424b532073756365737366756c6c7900000000000000602080830191909152336000908152600a8252838120600b835284822054825290915291909120906134159082614bb1565b50336000908152600d6020526040812080549161343183614d5c565b9091555050604080518082018252600d8082526c426f7567687420313030426b7360981b602080840191909152336000908152600c825284812092825284812054815291905291909120906134869082614bb1565b505b3466038d7ea4c68000036135ac573360009081526009602052604081208054603292906134b6908490614db6565b9091555050336000908152600b602052604081208054916134d683614d5c565b9091555050604080518082018252601881527f426f75676874203530424b532073756365737366756c6c790000000000000000602080830191909152336000908152600a8252838120600b8352848220548252909152919091209061353b9082614bb1565b50336000908152600d6020526040812080549161355783614d5c565b9091555050604080518082018252600c8082526b426f75676874203530424b5360a01b602080840191909152336000908152918152838220600d8252848320548352905291909120906135aa9082614bb1565b505b565b6005816040516135be9190614b13565b908152602001604051809103902060010180546135da90614b2f565b90506000036136235760405162461bcd60e51b815260206004820152601560248201527414995c5d595cdd08191bd95cdb89dd08195e1a5cdd605a1b6044820152606401610684565b60006005826040516136359190614b13565b90815260405190819003602001902090506000196000805b60048401548110156136ab57336001600160a01b031684600401828154811061367857613678614ee9565b60009182526020909120600290910201546001600160a01b0316036136a357600191508092506136ab565b60010161364d565b506001811515146136fe5760405162461bcd60e51b815260206004820152601a60248201527f596f757220636f6d6d656e7420646f65736e27742065786973740000000000006044820152606401610684565b60048301548210156137dc5760048301805461371c90600190614d75565b8154811061372c5761372c614ee9565b906000526020600020906002020183600401838154811061374f5761374f614ee9565b60009182526020909120825460029092020180546001600160a01b0319166001600160a01b0390921691909117815560018082019061379090840182614c72565b505050600483018054806137a6576137a66151d3565b60008281526020812060026000199093019283020180546001600160a01b0319168155906137d76001830182614262565b505090555b50505050565b336000908152600b6020526040812054606091906001600160401b0381111561380d5761380d614334565b60405190808252806020026020018201604052801561384057816020015b606081526020019060019003908161382b5790505b50905060005b336000908152600b6020526040902054811015611e8e57336000908152600a602090815260408083208484529091529020805461388290614b2f565b80601f01602080910402602001604051908101604052809291908181526020018280546138ae90614b2f565b80156138fb5780601f106138d0576101008083540402835291602001916138fb565b820191906000526020600020905b8154815290600101906020018083116138de57829003601f168201915b505050505082828151811061391257613912614ee9565b6020908102919091010152600101613846565b6008602090815260009283526040808420909152908252902080546001820180546001600160a01b039092169291611aa290614b2f565b6006546060906000906001600160401b0381111561397c5761397c614334565b6040519080825280602002602001820160405280156139b557816020015b6139a261429c565b81526020019060019003908161399a5790505b50905060005b600654811015611e8e576005600682815481106139da576139da614ee9565b906000526020600020016040516139f19190614e3b565b90815260408051918290036020908101832060a0840190925281546001600160a01b0316835260018201805491840191613a2a90614b2f565b80601f0160208091040260200160405190810160405280929190818152602001828054613a5690614b2f565b8015613aa35780601f10613a7857610100808354040283529160200191613aa3565b820191906000526020600020905b815481529060010190602001808311613a8657829003601f168201915b50505050508152602001600282018054613abc90614b2f565b80601f0160208091040260200160405190810160405280929190818152602001828054613ae890614b2f565b8015613b355780601f10613b0a57610100808354040283529160200191613b35565b820191906000526020600020905b815481529060010190602001808311613b1857829003601f168201915b50505050508152602001600382018054613b4e90614b2f565b80601f0160208091040260200160405190810160405280929190818152602001828054613b7a90614b2f565b8015613bc75780601f10613b9c57610100808354040283529160200191613bc7565b820191906000526020600020905b815481529060010190602001808311613baa57829003601f168201915b5050505050815260200160048201805480602002602001604051908101604052809291908181526020016000905b82821015613cce576000848152602090819020604080518082019091526002850290910180546001600160a01b031682526001810180549293919291840191613c3d90614b2f565b80601f0160208091040260200160405190810160405280929190818152602001828054613c6990614b2f565b8015613cb65780601f10613c8b57610100808354040283529160200191613cb6565b820191906000526020600020905b815481529060010190602001808311613c9957829003601f168201915b50505050508152505081526020019060010190613bf5565b5050505081525050828281518110613ce857613ce8614ee9565b60209081029190910101526001016139bb565b6135aa81604051602401613d0f91906144b8565b60408051601f198184030181529190526020810180516001600160e01b031663104c13eb60e21b1790526140da565b60005b600654811015613e1a5760068181548110613d5e57613d5e614ee9565b90600052602060002001604051613d759190614e3b565b6040518091039020828051906020012003613e125760068054613d9a90600190614d75565b81548110613daa57613daa614ee9565b9060005260206000200160068281548110613dc757613dc7614ee9565b906000526020600020019081613ddd9190614c72565b506006805480613def57613def6151d3565b600190038181906000526020600020016000613e0b9190614262565b9055613e1a565b600101613d41565b5060015b336000908152600760205260409020548111613fe157815160208084019190912033600090815260088352604080822085835290935282902091519091613e6a91600190910190614e3b565b604051809103902003613f9e57336000908152600860209081526040808320600783528184205484529091528082208383529120815481546001600160a01b0319166001600160a01b03909116178155600180820190613ecc90840182614c72565b50600281810190613edf90840182614c72565b50600381810190613ef290840182614c72565b5060048281018054613f0792840191906141dd565b505033600090815260086020908152604080832060078352818420548452909152812080546001600160a01b03191681559150613f476001830182614262565b613f55600283016000614262565b613f63600383016000614262565b613f716004830160006142d4565b5050336000908152600760205260408120805460019290613f93908490614d75565b90915550613fe19050565b613fcf6040518060400160405280601081526020016f14995c481a59081b9bdd08199bdd5b9960821b815250613cfb565b80613fd981614d5c565b915050613e1e565b50600581604051613ff29190614b13565b90815260405190819003602001902080546001600160a01b0319168155600061401e6001830182614262565b61402c600283016000614262565b61403a600383016000614262565b6113f36004830160006142d4565b60606000614055836140e3565b60010190506000816001600160401b0381111561407457614074614334565b6040519080825280601f01601f19166020018201604052801561409e576020820181803683370190505b5090508181016020015b600019016f181899199a1a9b1b9c1cb0b131b232b360811b600a86061a8153600a85049450846140a857509392505050565b6135aa816141bc565b60008072184f03e93ff9f4daa797ed6e38ed64bf6a1f0160401b83106141225772184f03e93ff9f4daa797ed6e38ed64bf6a1f0160401b830492506040015b6d04ee2d6d415b85acef8100000000831061414e576d04ee2d6d415b85acef8100000000830492506020015b662386f26fc10000831061416c57662386f26fc10000830492506010015b6305f5e1008310614184576305f5e100830492506008015b612710831061419857612710830492506004015b606483106141aa576064830492506002015b600a83106141b6576001015b92915050565b60006a636f6e736f6c652e6c6f679050600080835160208501845afa505050565b8280548282559060005260206000209060020281019282156142525760005260206000209160020282015b8281111561425257825482546001600160a01b0319166001600160a01b03909116178255828260018082019061424090840182614c72565b50505091600201919060020190614208565b5061425e9291506142f1565b5090565b50805461426e90614b2f565b6000825580601f1061427e575050565b601f0160209004906000526020600020908101906135aa919061431f565b6040518060a0016040528060006001600160a01b03168152602001606081526020016060815260200160608152602001606081525090565b50805460008255600202906000526020600020908101906135aa91905b8082111561425e5780546001600160a01b031916815560006143166001830182614262565b506002016142f1565b5b8082111561425e5760008155600101614320565b634e487b7160e01b600052604160045260246000fd5b600082601f83011261435b57600080fd5b81356001600160401b0381111561437457614374614334565b604051601f8201601f19908116603f011681016001600160401b03811182821017156143a2576143a2614334565b6040528181528382016020018510156143ba57600080fd5b816020850160208301376000918101602001919091529392505050565b6000806000606084860312156143ec57600080fd5b83356001600160401b0381111561440257600080fd5b61440e8682870161434a565b93505060208401356001600160401b0381111561442a57600080fd5b6144368682870161434a565b92505060408401356001600160401b0381111561445257600080fd5b61445e8682870161434a565b9150509250925092565b60005b8381101561448357818101518382015260200161446b565b50506000910152565b600081518084526144a4816020860160208601614468565b601f01601f19169290920160200192915050565b6020815260006144cb602083018461448c565b9392505050565b80356001600160a01b03811681146144e957600080fd5b919050565b6000806040838503121561450157600080fd5b61450a836144d2565b915060208301356001600160401b0381111561452557600080fd5b6145318582860161434a565b9150509250929050565b6000602082016020835280845180835260408501915060408160051b86010192506020860160005b8281101561466c57868503603f19018452815180516001600160a01b0316865260208082015160a09188018290529061459e9088018261448c565b9050604082015187820360408901526145b7828261448c565b915050606082015187820360608901526145d1828261448c565b91505060808201519150868103608088015280825180835260208301915060208160051b84010160208501945060005b8281101561465257848203601f19018452855180516001600160a01b0316835260209081015160409184018290529061463c9084018261448c565b6020978801979590950194925050600101614601565b509850505060209586019593909301925050600101614563565b50929695505050505050565b600080600080600080600060e0888a03121561469357600080fd5b87356001600160401b038111156146a957600080fd5b6146b58a828b0161434a565b97505060208801356001600160401b038111156146d157600080fd5b6146dd8a828b0161434a565b96505060408801356001600160401b038111156146f957600080fd5b6147058a828b0161434a565b95505060608801356001600160401b0381111561472157600080fd5b61472d8a828b0161434a565b94505060808801356001600160401b0381111561474957600080fd5b6147558a828b0161434a565b93505060a0880135915060c08801356001600160401b0381111561477857600080fd5b6147848a828b0161434a565b91505092959891949750929550565b6000602082840312156147a557600080fd5b6144cb826144d2565b6000602082840312156147c057600080fd5b81356001600160401b038111156147d657600080fd5b6147e28482850161434a565b949350505050565b6001600160a01b038516815260806020820181905260009061480e9083018661448c565b8281036040840152614820818661448c565b90508281036060840152614834818561448c565b979650505050505050565b6000806040838503121561485257600080fd5b61485b836144d2565b946020939093013593505050565b6000602082016020835280845180835260408501915060408160051b86010192506020860160005b8281101561466c57603f1987860301845281518051606087526148b7606088018261448c565b9050602082015187820360208901526148d0828261448c565b6040938401516001600160a01b031698909301979097525094506020938401939190910190600101614891565b6000602082016020835280845180835260408501915060408160051b86010192506020860160005b8281101561466c57868503603f19018452815180516001600160a01b031686526020908101516040918701829052906149609087018261448c565b9550506020938401939190910190600101614925565b60006020828403121561498857600080fd5b5035919050565b6060815260006149a2606083018661448c565b82810360208401526149b4818661448c565b91505060018060a01b0383166040830152949350505050565b6001600160a01b0389168152610100602082018190526000906149f29083018a61448c565b8281036040840152614a04818a61448c565b90508281036060840152614a18818961448c565b90508281036080840152614a2c818861448c565b905082810360a0840152614a40818761448c565b90508460c084015282810360e0840152614a5a818561448c565b9b9a5050505050505050505050565b60008060408385031215614a7c57600080fd5b82356001600160401b03811115614a9257600080fd5b614a9e8582860161434a565b92505060208301356001600160401b0381111561452557600080fd5b6000602082016020835280845180835260408501915060408160051b86010192506020860160005b8281101561466c57603f19878603018452614afe85835161448c565b94506020938401939190910190600101614ae2565b60008251614b25818460208701614468565b9190910192915050565b600181811c90821680614b4357607f821691505b602082108103611e8e57634e487b7160e01b600052602260045260246000fd5b601f8211156113f357806000526020600020601f840160051c81016020851015614b8a5750805b601f840160051c820191505b81811015614baa5760008155600101614b96565b5050505050565b81516001600160401b03811115614bca57614bca614334565b614bde81614bd88454614b2f565b84614b63565b6020601f821160018114614c155760008315614bfa5750848201515b600184901b600019600386901b1c198216175b855550614baa565b600084815260208120601f198516915b82811015614c455787850151825560209485019460019092019101614c25565b5084821015614c635786840151600019600387901b60f8161c191681555b50505050600190811b01905550565b818103614c7d575050565b614c878254614b2f565b6001600160401b03811115614c9e57614c9e614334565b614cac81614bd88454614b2f565b6000601f821160018114614cde5760008315614bfa575081850154600184901b600019600386901b1c19821617614c0d565b600085815260209020601f19841690600086815260209020845b83811015614d185782860154825560019586019590910190602001614cf8565b5085831015614d365781850154600019600388901b60f8161c191681555b5050505050600190811b01905550565b634e487b7160e01b600052601160045260246000fd5b600060018201614d6e57614d6e614d46565b5060010190565b818103818111156141b6576141b6614d46565b604081526000614d9b604083018561448c565b8281036020840152614dad818561448c565b95945050505050565b808201808211156141b6576141b6614d46565b60008154614dd681614b2f565b600182168015614ded5760018114614e0257614e32565b60ff1983168652811515820286019350614e32565b84600052602060002060005b83811015614e2a57815488820152600190910190602001614e0e565b505081860193505b50505092915050565b60006144cb8284614dc9565b7f476f7420626c6f6f6420616e642072656c656173656420424b5320746f200000815260006144cb601e830184614dc9565b7f446f6e6174656420426c6f6f6420616e6420676f7420424b532066726f6d2000815260006144cb601f830184614dc9565b6c023b7ba10313637b7b210313c9609d1b815260006144cb600d830184614dc9565b6602432b63832b2160cd1b815260006144cb6007830184614dc9565b634e487b7160e01b600052603260045260246000fd5b80820281158282048414176141b6576141b6614d46565b6a02bb4ba34223930bbb2b2160ad1b815260008251614f3c81600b850160208701614468565b6f206574682053756365737366756c6c7960801b600b939091019283015250601b01919050565b6f021b430b733b2b2103730b6b2903a37960851b815260008251614f8e816010850160208701614468565b6b2053756365737366756c6c7960a01b6010939091019283015250601c01919050565b74021b430b733b2b210213637b7b22a3cb832903a379605d1b815260008251614fe1816015850160208701614468565b6b2053756365737366756c6c7960a01b6015939091019283015250602101919050565b6e021b430b733b2b2103237b1103a379608d1b81526000825161502e81600f850160208701614468565b6b2053756365737366756c6c7960a01b600f939091019283015250601b01919050565b71021b430b733b2b21033b2b73232b9103a37960751b81526000825161507e816012850160208701614468565b6b2053756365737366756c6c7960a01b6012939091019283015250601e01919050565b72021b430b733b2b21020b2323932b9b9903a379606d1b8152600082516150cf816013850160208701614468565b6b2053756365737366756c6c7960a01b6013939091019283015250601f01919050565b6b02a3930b739b332b93932b2160a51b81526000835161511981600c850160208801614468565b670102125a9903a37960c51b600c91840191820152614dad6014820185614dc9565b6802932b1b2b4bb32b2160bd1b81526000835161515f816009850160208801614468565b690102125a990233937b6960b51b600991840191820152614dad6013820185614dc9565b7202cb7bab9102237b730ba34b7b7103bb4ba341606d1b8152600082516151b1816013850160208701614468565b6a2069732070656e64696e6760a81b6013939091019283015250601e01919050565b634e487b7160e01b600052603160045260246000fdfe55706461746564206d65646963616c207265706f72742073756365737366756c6c79a2646970667358221220c3a3140d172c0408579fa18db755d5df0890962aa506f04f0040240c66cc1b8264736f6c634300081b0033",
  "linkReferences": {},
  "deployedLinkReferences": {}
}